{
  "contractName": "Product",
  "abi": [
    {
      "inputs": [
        {
          "internalType": "address",
          "name": "_manufacturerAddr",
          "type": "address"
        },
        {
          "internalType": "string",
          "name": "_description",
          "type": "string"
        },
        {
          "internalType": "address[]",
          "name": "_rawAddr",
          "type": "address[]"
        },
        {
          "internalType": "uint256",
          "name": "_quantity",
          "type": "uint256"
        },
        {
          "internalType": "address[]",
          "name": "_transporterAddr",
          "type": "address[]"
        },
        {
          "internalType": "address",
          "name": "_receiverAddr",
          "type": "address"
        }
      ],
      "stateMutability": "nonpayable",
      "type": "constructor"
    },
    {
      "anonymous": false,
      "inputs": [
        {
          "indexed": true,
          "internalType": "address",
          "name": "BatchID",
          "type": "address"
        },
        {
          "indexed": true,
          "internalType": "address",
          "name": "Shipper",
          "type": "address"
        },
        {
          "indexed": true,
          "internalType": "address",
          "name": "Receiver",
          "type": "address"
        },
        {
          "indexed": false,
          "internalType": "uint256",
          "name": "TransporterType",
          "type": "uint256"
        },
        {
          "indexed": false,
          "internalType": "uint256",
          "name": "Status",
          "type": "uint256"
        }
      ],
      "name": "ShippmentUpdate",
      "type": "event"
    },
    {
      "inputs": [
        {
          "internalType": "address",
          "name": "_receiverAddr",
          "type": "address"
        }
      ],
      "name": "receivedProduct",
      "outputs": [
        {
          "internalType": "uint256",
          "name": "",
          "type": "uint256"
        }
      ],
      "stateMutability": "nonpayable",
      "type": "function"
    },
    {
      "inputs": [
        {
          "internalType": "address",
          "name": "_transporterAddr",
          "type": "address"
        }
      ],
      "name": "pickItemProduct",
      "outputs": [],
      "stateMutability": "nonpayable",
      "type": "function"
    },
    {
      "inputs": [],
      "name": "getItemProductTxn",
      "outputs": [
        {
          "internalType": "address",
          "name": "",
          "type": "address"
        }
      ],
      "stateMutability": "view",
      "type": "function"
    }
  ],
  "bytecode": "0x60806040523480156200001157600080fd5b5060405162001c1238038062001c12833981810160405260c08110156200003757600080fd5b8101908080519060200190929190805160405193929190846401000000008211156200006257600080fd5b838201915060208201858111156200007957600080fd5b82518660018202830111640100000000821117156200009757600080fd5b8083526020830192505050908051906020019080838360005b83811015620000cd578082015181840152602081019050620000b0565b50505050905090810190601f168015620000fb5780820380516001836020036101000a031916815260200191505b50604052602001805160405193929190846401000000008211156200011f57600080fd5b838201915060208201858111156200013657600080fd5b82518660208202830111640100000000821117156200015457600080fd5b8083526020830192505050908051906020019060200280838360005b838110156200018d57808201518184015260208101905062000170565b505050509050016040526020018051906020019092919080516040519392919084640100000000821115620001c157600080fd5b83820191506020820185811115620001d857600080fd5b8251866020820283011164010000000082111715620001f657600080fd5b8083526020830192505050908051906020019060200280838360005b838110156200022f57808201518184015260208101905062000212565b5050505090500160405260200180519060200190929190505050856000806101000a81548173ffffffffffffffffffffffffffffffffffffffff021916908373ffffffffffffffffffffffffffffffffffffffff16021790555085600460006101000a81548173ffffffffffffffffffffffffffffffffffffffff021916908373ffffffffffffffffffffffffffffffffffffffff1602179055508460019080519060200190620002e292919062000443565b508360029080519060200190620002fb929190620004ca565b508260078190555081600390805190602001906200031b929190620004ca565b5080600560006101000a81548173ffffffffffffffffffffffffffffffffffffffff021916908373ffffffffffffffffffffffffffffffffffffffff160217905550600060068111156200036b57fe5b600860006101000a81548160ff021916908360068111156200038957fe5b02179055506000866040516200039f9062000559565b808273ffffffffffffffffffffffffffffffffffffffff1673ffffffffffffffffffffffffffffffffffffffff168152602001915050604051809103906000f080158015620003f2573d6000803e3d6000fd5b50905080600860016101000a81548173ffffffffffffffffffffffffffffffffffffffff021916908373ffffffffffffffffffffffffffffffffffffffff16021790555050505050505050620005d5565b828054600181600116156101000203166002900490600052602060002090601f016020900481019282601f106200048657805160ff1916838001178555620004b7565b82800160010185558215620004b7579182015b82811115620004b657825182559160200191906001019062000499565b5b509050620004c6919062000567565b5090565b82805482825590600052602060002090810192821562000546579160200282015b82811115620005455782518260006101000a81548173ffffffffffffffffffffffffffffffffffffffff021916908373ffffffffffffffffffffffffffffffffffffffff16021790555091602001919060010190620004eb565b5b5090506200055591906200058f565b5090565b610f208062000cf283390190565b6200058c91905b80821115620005885760008160009055506001016200056e565b5090565b90565b620005d291905b80821115620005ce57600081816101000a81549073ffffffffffffffffffffffffffffffffffffffff02191690555060010162000596565b5090565b90565b61070d80620005e56000396000f3fe608060405234801561001057600080fd5b50600436106100415760003560e01c806348a40d20146100465780639296057b1461009057806394c60714146100e8575b600080fd5b61004e61012c565b604051808273ffffffffffffffffffffffffffffffffffffffff1673ffffffffffffffffffffffffffffffffffffffff16815260200191505060405180910390f35b6100d2600480360360208110156100a657600080fd5b81019080803573ffffffffffffffffffffffffffffffffffffffff169060200190929190505050610156565b6040518082815260200191505060405180910390f35b61012a600480360360208110156100fe57600080fd5b81019080803573ffffffffffffffffffffffffffffffffffffffff1690602001909291905050506103f1565b005b6000600860019054906101000a900473ffffffffffffffffffffffffffffffffffffffff16905090565b6000600560009054906101000a900473ffffffffffffffffffffffffffffffffffffffff1673ffffffffffffffffffffffffffffffffffffffff168273ffffffffffffffffffffffffffffffffffffffff16146101fe576040517f08c379a000000000000000000000000000000000000000000000000000000000815260040180806020018281038252602681526020018061068b6026913960400191505060405180910390fd5b6001600860009054906101000a900460ff16600681111561021b57fe5b101561028f576040517f08c379a00000000000000000000000000000000000000000000000000000000081526004018080602001828103825260198152602001807f50726f64756374206e6f74207069636b6564207570207965740000000000000081525060200191505060405180910390fd5b6001600681111561029c57fe5b60068111156102a757fe5b600860009054906101000a900460ff1660068111156102c257fe5b14156103e757600360068111156102d557fe5b600860006101000a81548160ff021916908360068111156102f257fe5b0217905550600560009054906101000a900473ffffffffffffffffffffffffffffffffffffffff1673ffffffffffffffffffffffffffffffffffffffff1660036001600380549050038154811061034557fe5b9060005260206000200160009054906101000a900473ffffffffffffffffffffffffffffffffffffffff1673ffffffffffffffffffffffffffffffffffffffff163073ffffffffffffffffffffffffffffffffffffffff167f7e89c4b1a4e2b51aae84eb1f90e8a34cb792ece5ac5cb63db4830c891220b28d60026003604051808381526020018281526020019250505060405180910390a4600190506103ec565b600090505b919050565b60036001600380549050038154811061040657fe5b9060005260206000200160009054906101000a900473ffffffffffffffffffffffffffffffffffffffff1673ffffffffffffffffffffffffffffffffffffffff168173ffffffffffffffffffffffffffffffffffffffff16146104b4576040517f08c379a00000000000000000000000000000000000000000000000000000000081526004018080602001828103825260278152602001806106b16027913960400191505060405180910390fd5b600060068111156104c157fe5b60068111156104cc57fe5b600860009054906101000a900460ff1660068111156104e757fe5b1461055a576040517f08c379a00000000000000000000000000000000000000000000000000000000081526004018080602001828103825260208152602001807f5061636b616765206d757374206265206174204d616e7566616374757265722e81525060200191505060405180910390fd5b600073ffffffffffffffffffffffffffffffffffffffff16600560009054906101000a900473ffffffffffffffffffffffffffffffffffffffff1673ffffffffffffffffffffffffffffffffffffffff161461068757600160068111156105bd57fe5b600860006101000a81548160ff021916908360068111156105da57fe5b0217905550600560009054906101000a900473ffffffffffffffffffffffffffffffffffffffff1673ffffffffffffffffffffffffffffffffffffffff168173ffffffffffffffffffffffffffffffffffffffff163073ffffffffffffffffffffffffffffffffffffffff167f7e89c4b1a4e2b51aae84eb1f90e8a34cb792ece5ac5cb63db4830c891220b28d600180604051808381526020018281526020019250505060405180910390a45b5056fe4f6e6c792057686f6c6573616c65722063616e2063616c6c20746869732066756e6374696f6e4f6e6c79205472616e73706f727465722063616e2063616c6c20746869732066756e6374696f6ea2646970667358221220c0721722201827db4af5e20fa257ca26161cbd1b73ab417af86615519a2552ae64736f6c634300060600336080604052600060025534801561001557600080fd5b50604051610f20380380610f2083398181016040528101906100379190610092565b806000806101000a81548173ffffffffffffffffffffffffffffffffffffffff021916908373ffffffffffffffffffffffffffffffffffffffff16021790555050610104565b60008151905061008c816100ed565b92915050565b6000602082840312156100a457600080fd5b60006100b28482850161007d565b91505092915050565b60006100c6826100cd565b9050919050565b600073ffffffffffffffffffffffffffffffffffffffff82169050919050565b6100f6816100bb565b811461010157600080fd5b50565b610e0d806101136000396000f3fe608060405234801561001057600080fd5b50600436106100415760003560e01c806327506f53146100465780633626a3681461006457806378ce136514610080575b600080fd5b61004e61009e565b60405161005b9190610b77565b60405180910390f35b61007e60048036038101906100799190610886565b610364565b005b6100886106ee565b6040516100959190610c36565b60405180910390f35b60606000600254905060608167ffffffffffffffff811180156100c057600080fd5b506040519080825280602002602001820160405280156100fa57816020015b6100e76106f4565b8152602001906001900390816100df5790505b50905060008090505b8281101561035b57600160008281526020019081526020016000206040518060e0016040529081600082015481526020016001820160009054906101000a900473ffffffffffffffffffffffffffffffffffffffff1673ffffffffffffffffffffffffffffffffffffffff1673ffffffffffffffffffffffffffffffffffffffff1681526020016002820160009054906101000a900473ffffffffffffffffffffffffffffffffffffffff1673ffffffffffffffffffffffffffffffffffffffff1673ffffffffffffffffffffffffffffffffffffffff16815260200160038201548152602001600482018054600181600116156101000203166002900480601f0160208091040260200160405190810160405280929190818152602001828054600181600116156101000203166002900480156102825780601f1061025757610100808354040283529160200191610282565b820191906000526020600020905b81548152906001019060200180831161026557829003601f168201915b50505050508152602001600582018054600181600116156101000203166002900480601f0160208091040260200160405190810160405280929190818152602001828054600181600116156101000203166002900480156103245780601f106102f957610100808354040283529160200191610324565b820191906000526020600020905b81548152906001019060200180831161030757829003601f168201915b5050505050815260200160068201548152505082828151811061034357fe5b60200260200101819052508080600101915050610103565b50809250505090565b6000429050600060025414156104d6576040518060e001604052808881526020018773ffffffffffffffffffffffffffffffffffffffff1681526020018673ffffffffffffffffffffffffffffffffffffffff168152602001858152602001848152602001838152602001828152506001600060025481526020019081526020016000206000820151816000015560208201518160010160006101000a81548173ffffffffffffffffffffffffffffffffffffffff021916908373ffffffffffffffffffffffffffffffffffffffff16021790555060408201518160020160006101000a81548173ffffffffffffffffffffffffffffffffffffffff021916908373ffffffffffffffffffffffffffffffffffffffff1602179055506060820151816003015560808201518160040190805190602001906104a6929190610763565b5060a08201518160050190805190602001906104c3929190610763565b5060c08201518160060155905050610691565b836001600060016002540381526020019081526020016000206000015414610533576040517f08c379a000000000000000000000000000000000000000000000000000000000815260040161052a90610c16565b60405180910390fd5b6040518060e001604052808881526020018773ffffffffffffffffffffffffffffffffffffffff1681526020018673ffffffffffffffffffffffffffffffffffffffff168152602001858152602001848152602001838152602001828152506001600060025481526020019081526020016000206000820151816000015560208201518160010160006101000a81548173ffffffffffffffffffffffffffffffffffffffff021916908373ffffffffffffffffffffffffffffffffffffffff16021790555060408201518160020160006101000a81548173ffffffffffffffffffffffffffffffffffffffff021916908373ffffffffffffffffffffffffffffffffffffffff160217905550606082015181600301556080820151816004019080519060200190610665929190610763565b5060a0820151816005019080519060200190610682929190610763565b5060c082015181600601559050505b60016002600082825401925050819055507f30d01d358fb0899fe4d50947b2e9301c952d9eed09b14c7ecdcbeed4434557c4878787878588886040516106dd9796959493929190610b99565b60405180910390a150505050505050565b60025481565b6040518060e0016040528060008019168152602001600073ffffffffffffffffffffffffffffffffffffffff168152602001600073ffffffffffffffffffffffffffffffffffffffff168152602001600080191681526020016060815260200160608152602001600081525090565b828054600181600116156101000203166002900490600052602060002090601f016020900481019282601f106107a457805160ff19168380011785556107d2565b828001600101855582156107d2579182015b828111156107d15782518255916020019190600101906107b6565b5b5090506107df91906107e3565b5090565b61080591905b808211156108015760008160009055506001016107e9565b5090565b90565b60008135905061081781610da9565b92915050565b60008135905061082c81610dc0565b92915050565b600082601f83011261084357600080fd5b813561085661085182610c7e565b610c51565b9150808252602083016020830185838301111561087257600080fd5b61087d838284610d56565b50505092915050565b60008060008060008060c0878903121561089f57600080fd5b60006108ad89828a0161081d565b96505060206108be89828a01610808565b95505060406108cf89828a01610808565b94505060606108e089828a0161081d565b935050608087013567ffffffffffffffff8111156108fd57600080fd5b61090989828a01610832565b92505060a087013567ffffffffffffffff81111561092657600080fd5b61093289828a01610832565b9150509295509295509295565b600061094b8383610ab6565b905092915050565b61095c81610d10565b82525050565b61096b81610d10565b82525050565b600061097c82610cba565b6109868185610cdd565b93508360208202850161099885610caa565b8060005b858110156109d457848403895281516109b5858261093f565b94506109c083610cd0565b925060208a0199505060018101905061099c565b50829750879550505050505092915050565b6109ef81610d22565b82525050565b6109fe81610d22565b82525050565b6000610a0f82610cc5565b610a198185610cee565b9350610a29818560208601610d65565b610a3281610d98565b840191505092915050565b6000610a4882610cc5565b610a528185610cff565b9350610a62818560208601610d65565b610a6b81610d98565b840191505092915050565b6000610a83601b83610cff565b91507f5472616e73616374696f6e206572726f72206f636375727265642100000000006000830152602082019050919050565b600060e083016000830151610ace60008601826109e6565b506020830151610ae16020860182610953565b506040830151610af46040860182610953565b506060830151610b0760608601826109e6565b5060808301518482036080860152610b1f8282610a04565b91505060a083015184820360a0860152610b398282610a04565b91505060c0830151610b4e60c0860182610b59565b508091505092915050565b610b6281610d4c565b82525050565b610b7181610d4c565b82525050565b60006020820190508181036000830152610b918184610971565b905092915050565b600060e082019050610bae600083018a6109f5565b610bbb6020830189610962565b610bc86040830188610962565b610bd560608301876109f5565b610be26080830186610b68565b81810360a0830152610bf48185610a3d565b905081810360c0830152610c088184610a3d565b905098975050505050505050565b60006020820190508181036000830152610c2f81610a76565b9050919050565b6000602082019050610c4b6000830184610b68565b92915050565b6000604051905081810181811067ffffffffffffffff82111715610c7457600080fd5b8060405250919050565b600067ffffffffffffffff821115610c9557600080fd5b601f19601f8301169050602081019050919050565b6000819050602082019050919050565b600081519050919050565b600081519050919050565b6000602082019050919050565b600082825260208201905092915050565b600082825260208201905092915050565b600082825260208201905092915050565b6000610d1b82610d2c565b9050919050565b6000819050919050565b600073ffffffffffffffffffffffffffffffffffffffff82169050919050565b6000819050919050565b82818337600083830152505050565b60005b83811015610d83578082015181840152602081019050610d68565b83811115610d92576000848401525b50505050565b6000601f19601f8301169050919050565b610db281610d10565b8114610dbd57600080fd5b50565b610dc981610d22565b8114610dd457600080fd5b5056fea2646970667358221220a2588559b12d3462f3b84953ded9cd9a56c075d3b3ffe55799ffe16b6aa697b864736f6c63430006060033",
  "immutableReferences": {},
  "source": "// SPDX-License-Identifier: MIT\r\npragma solidity ^0.6.6;\r\n\r\nimport './Transactions.sol';\r\n\r\ncontract Product {\r\n\r\n    address Owner;\r\n\r\n    enum productStatus {\r\n        atManufacturer,\r\n        pickedForW,\r\n        pickedForD,\r\n        deliveredAtW,\r\n        deliveredAtD,\r\n        pickedForC,\r\n        deliveredAtC\r\n    }\r\n\r\n    string description;\r\n    address[] rawMaterials;\r\n    address[] transporters;\r\n    address manufacturer;\r\n    address wholesaler;\r\n    address customer;\r\n    uint quantity;\r\n    productStatus status;\r\n    address txnContractAddress;\r\n\r\n    event ShippmentUpdate(\r\n        address indexed BatchID,\r\n        address indexed Shipper,\r\n        address indexed Receiver,\r\n        uint TransporterType,\r\n        uint Status\r\n    );\r\n\r\n    constructor(\r\n        address _manufacturerAddr,\r\n        string memory _description,\r\n        address[] memory _rawAddr,\r\n        uint _quantity,\r\n        address[] memory _transporterAddr,\r\n        address _receiverAddr\r\n    ) public {\r\n        Owner = _manufacturerAddr;\r\n        manufacturer = _manufacturerAddr;\r\n        description = _description;\r\n        rawMaterials = _rawAddr;\r\n        quantity = _quantity;\r\n        transporters = _transporterAddr;\r\n        wholesaler = _receiverAddr;\r\n        status = productStatus(0);\r\n        Transactions txnContract = new Transactions(_manufacturerAddr);\r\n        txnContractAddress = address(txnContract);\r\n    }\r\n\r\n    function receivedProduct( address _receiverAddr) public returns(uint){\r\n        require(\r\n            _receiverAddr == wholesaler,\r\n            \"Only Wholesaler can call this function\"\r\n        );\r\n\r\n        require(\r\n            uint(status) >= 1,\r\n            \"Product not picked up yet\"\r\n        );\r\n\r\n        if(status == productStatus(1)){\r\n            status = productStatus(3);\r\n            emit ShippmentUpdate(address(this), transporters[transporters.length - 1], wholesaler, 2, 3);\r\n            return 1;\r\n        }\r\n        return 0;\r\n    }\r\n\r\n    function pickItemProduct(\r\n        address _transporterAddr\r\n    ) public {\r\n        require(\r\n            _transporterAddr == transporters[transporters.length - 1],\r\n            \"Only Transporter can call this function\"\r\n        );\r\n        require(\r\n            status == productStatus(0),\r\n            \"Package must be at Manufacturer.\"\r\n        );\r\n\r\n        if(wholesaler != address(0x0)){\r\n            status = productStatus(1);\r\n            emit ShippmentUpdate(address(this), _transporterAddr, wholesaler, 1, 1);\r\n        }\r\n    }\r\n\r\n    function getItemProductTxn() public view returns(address){\r\n        return txnContractAddress;\r\n    }\r\n\r\n\r\n\r\n}",
  "sourcePath": "C:\\Users\\pisci\\OneDrive\\Escritorio\\victor\\app-supply\\contracts\\Product.sol",
  "compiler": {
    "name": "solc",
    "version": "0.6.6+commit.6c089d02.Emscripten.clang"
  },
  "schemaVersion": "3.4.8",
  "updatedAt": "2022-07-26T00:01:37.334Z",
  "devdoc": {
    "methods": {}
  },
  "userdoc": {
    "methods": {}
  }
}