{
  "contractName": "RawMaterial",
  "abi": [
    {
      "inputs": [
        {
          "internalType": "address",
          "name": "_creatorAddr",
          "type": "address"
        },
        {
          "internalType": "address",
          "name": "_productid",
          "type": "address"
        },
        {
          "internalType": "string",
          "name": "_description",
          "type": "string"
        },
        {
          "internalType": "uint256",
          "name": "_quantity",
          "type": "uint256"
        },
        {
          "internalType": "address",
          "name": "_transporterAddr",
          "type": "address"
        },
        {
          "internalType": "address",
          "name": "_manufacturerAddr",
          "type": "address"
        }
      ],
      "stateMutability": "nonpayable",
      "type": "constructor"
    },
    {
      "inputs": [],
      "name": "productid",
      "outputs": [
        {
          "internalType": "address",
          "name": "",
          "type": "address"
        }
      ],
      "stateMutability": "view",
      "type": "function"
    },
    {
      "inputs": [],
      "name": "getSuppliedRawMaterials",
      "outputs": [
        {
          "internalType": "address",
          "name": "",
          "type": "address"
        },
        {
          "internalType": "string",
          "name": "",
          "type": "string"
        },
        {
          "internalType": "uint256",
          "name": "",
          "type": "uint256"
        },
        {
          "internalType": "address",
          "name": "",
          "type": "address"
        },
        {
          "internalType": "address",
          "name": "",
          "type": "address"
        },
        {
          "internalType": "address",
          "name": "",
          "type": "address"
        },
        {
          "internalType": "address",
          "name": "",
          "type": "address"
        }
      ],
      "stateMutability": "view",
      "type": "function"
    },
    {
      "inputs": [],
      "name": "getRawMaterialStatus",
      "outputs": [
        {
          "internalType": "uint256",
          "name": "",
          "type": "uint256"
        }
      ],
      "stateMutability": "view",
      "type": "function"
    },
    {
      "inputs": [
        {
          "internalType": "address",
          "name": "addr",
          "type": "address"
        }
      ],
      "name": "updateManufacturerAddress",
      "outputs": [],
      "stateMutability": "nonpayable",
      "type": "function"
    },
    {
      "inputs": [
        {
          "internalType": "address",
          "name": "_transporterAddr",
          "type": "address"
        }
      ],
      "name": "pickupPackage",
      "outputs": [],
      "stateMutability": "nonpayable",
      "type": "function"
    },
    {
      "inputs": [
        {
          "internalType": "address",
          "name": "_manufacturerAddr",
          "type": "address"
        }
      ],
      "name": "receivedPackage",
      "outputs": [],
      "stateMutability": "nonpayable",
      "type": "function"
    }
  ],
  "bytecode": "0x608060405234801561001057600080fd5b50604051611c03380380611c03833981810160405260c081101561003357600080fd5b8101908080519060200190929190805190602001909291908051604051939291908464010000000082111561006757600080fd5b8382019150602082018581111561007d57600080fd5b825186600182028301116401000000008211171561009a57600080fd5b8083526020830192505050908051906020019080838360005b838110156100ce5780820151818401526020810190506100b3565b50505050905090810190601f1680156100fb5780820380516001836020036101000a031916815260200191505b50604052602001805190602001909291908051906020019092919080519060200190929190505050856000806101000a81548173ffffffffffffffffffffffffffffffffffffffff021916908373ffffffffffffffffffffffffffffffffffffffff16021790555084600160006101000a81548173ffffffffffffffffffffffffffffffffffffffff021916908373ffffffffffffffffffffffffffffffffffffffff16021790555083600290805190602001906101ba929190610365565b508260038190555081600460006101000a81548173ffffffffffffffffffffffffffffffffffffffff021916908373ffffffffffffffffffffffffffffffffffffffff16021790555080600560006101000a81548173ffffffffffffffffffffffffffffffffffffffff021916908373ffffffffffffffffffffffffffffffffffffffff16021790555085600660006101000a81548173ffffffffffffffffffffffffffffffffffffffff021916908373ffffffffffffffffffffffffffffffffffffffff1602179055506000600281111561029257fe5b600660146101000a81548160ff021916908360028111156102af57fe5b02179055506000816040516102c3906103e5565b808273ffffffffffffffffffffffffffffffffffffffff1673ffffffffffffffffffffffffffffffffffffffff168152602001915050604051809103906000f080158015610315573d6000803e3d6000fd5b50905080600860006101000a81548173ffffffffffffffffffffffffffffffffffffffff021916908373ffffffffffffffffffffffffffffffffffffffff16021790555050505050505050610417565b828054600181600116156101000203166002900490600052602060002090601f016020900481019282601f106103a657805160ff19168380011785556103d4565b828001600101855582156103d4579182015b828111156103d35782518255916020019190600101906103b8565b5b5090506103e191906103f2565b5090565b610f2080610ce383390190565b61041491905b808211156104105760008160009055506001016103f8565b5090565b90565b6108bd806104266000396000f3fe608060405234801561001057600080fd5b50600436106100625760003560e01c806350e073bc1461006757806352b99968146100ab5780636b099dca146100ef578063807235201461010d578063d9f20edf14610296578063e594caa5146102e0575b600080fd5b6100a96004803603602081101561007d57600080fd5b81019080803573ffffffffffffffffffffffffffffffffffffffff169060200190929190505050610324565b005b6100ed600480360360208110156100c157600080fd5b81019080803573ffffffffffffffffffffffffffffffffffffffff169060200190929190505050610368565b005b6100f76104e5565b6040518082815260200191505060405180910390f35b610115610507565b604051808873ffffffffffffffffffffffffffffffffffffffff1673ffffffffffffffffffffffffffffffffffffffff168152602001806020018781526020018673ffffffffffffffffffffffffffffffffffffffff1673ffffffffffffffffffffffffffffffffffffffff1681526020018573ffffffffffffffffffffffffffffffffffffffff1673ffffffffffffffffffffffffffffffffffffffff1681526020018473ffffffffffffffffffffffffffffffffffffffff1673ffffffffffffffffffffffffffffffffffffffff1681526020018373ffffffffffffffffffffffffffffffffffffffff1673ffffffffffffffffffffffffffffffffffffffff168152602001828103825288818151815260200191508051906020019080838360005b8381101561025557808201518184015260208101905061023a565b50505050905090810190601f1680156102825780820380516001836020036101000a031916815260200191505b509850505050505050505060405180910390f35b61029e61067a565b604051808273ffffffffffffffffffffffffffffffffffffffff1673ffffffffffffffffffffffffffffffffffffffff16815260200191505060405180910390f35b610322600480360360208110156102f657600080fd5b81019080803573ffffffffffffffffffffffffffffffffffffffff1690602001909291905050506106a0565b005b80600560006101000a81548173ffffffffffffffffffffffffffffffffffffffff021916908373ffffffffffffffffffffffffffffffffffffffff16021790555050565b600560009054906101000a900473ffffffffffffffffffffffffffffffffffffffff1673ffffffffffffffffffffffffffffffffffffffff168173ffffffffffffffffffffffffffffffffffffffff161461040e576040517f08c379a000000000000000000000000000000000000000000000000000000000815260040180806020018281038252603981526020018061081f6039913960400191505060405180910390fd5b6001600281111561041b57fe5b600281111561042657fe5b600660149054906101000a900460ff16600281111561044157fe5b146104b4576040517f08c379a00000000000000000000000000000000000000000000000000000000081526004018080602001828103825260198152602001807f50726f64756374206e6f74207069636b6564207570207965740000000000000081525060200191505060405180910390fd5b6002808111156104c057fe5b600660146101000a81548160ff021916908360028111156104dd57fe5b021790555050565b6000600660149054906101000a900460ff16600281111561050257fe5b905090565b600060606000806000806000600160009054906101000a900473ffffffffffffffffffffffffffffffffffffffff166002600354600660009054906101000a900473ffffffffffffffffffffffffffffffffffffffff16600460009054906101000a900473ffffffffffffffffffffffffffffffffffffffff16600560009054906101000a900473ffffffffffffffffffffffffffffffffffffffff16600860009054906101000a900473ffffffffffffffffffffffffffffffffffffffff16858054600181600116156101000203166002900480601f01602080910402602001604051908101604052809291908181526020018280546001816001161561010002031660029004801561065c5780601f106106315761010080835404028352916020019161065c565b820191906000526020600020905b81548152906001019060200180831161063f57829003601f168201915b50505050509550965096509650965096509650965090919293949596565b600160009054906101000a900473ffffffffffffffffffffffffffffffffffffffff1681565b600460009054906101000a900473ffffffffffffffffffffffffffffffffffffffff1673ffffffffffffffffffffffffffffffffffffffff168173ffffffffffffffffffffffffffffffffffffffff1614610746576040517f08c379a00000000000000000000000000000000000000000000000000000000081526004018080602001828103825260308152602001806108586030913960400191505060405180910390fd5b6000600281111561075357fe5b600281111561075e57fe5b600660149054906101000a900460ff16600281111561077957fe5b146107ec576040517f08c379a000000000000000000000000000000000000000000000000000000000815260040180806020018281038252601c8152602001807f5061636b616765206d75737420626520617420537570706c6965722e0000000081525060200191505060405180910390fd5b600160028111156107f957fe5b600660146101000a81548160ff0219169083600281111561081657fe5b02179055505056fe4f6e6c79204d616e756661637475726572206f6620746865207061636b6167652063616e20726563656965766520746865207061636b6167654f6e6c79207472616e73706f72746572206f6620746865207061636b6167652063616e207069636b207061636b616765a2646970667358221220c13b3fe2c9f434e3cebe2be0641147ca46fcf5bba73a8bd42ef6967774bbecad64736f6c634300060600336080604052600060025534801561001557600080fd5b50604051610f20380380610f2083398181016040528101906100379190610092565b806000806101000a81548173ffffffffffffffffffffffffffffffffffffffff021916908373ffffffffffffffffffffffffffffffffffffffff16021790555050610104565b60008151905061008c816100ed565b92915050565b6000602082840312156100a457600080fd5b60006100b28482850161007d565b91505092915050565b60006100c6826100cd565b9050919050565b600073ffffffffffffffffffffffffffffffffffffffff82169050919050565b6100f6816100bb565b811461010157600080fd5b50565b610e0d806101136000396000f3fe608060405234801561001057600080fd5b50600436106100415760003560e01c806327506f53146100465780633626a3681461006457806378ce136514610080575b600080fd5b61004e61009e565b60405161005b9190610b77565b60405180910390f35b61007e60048036038101906100799190610886565b610364565b005b6100886106ee565b6040516100959190610c36565b60405180910390f35b60606000600254905060608167ffffffffffffffff811180156100c057600080fd5b506040519080825280602002602001820160405280156100fa57816020015b6100e76106f4565b8152602001906001900390816100df5790505b50905060008090505b8281101561035b57600160008281526020019081526020016000206040518060e0016040529081600082015481526020016001820160009054906101000a900473ffffffffffffffffffffffffffffffffffffffff1673ffffffffffffffffffffffffffffffffffffffff1673ffffffffffffffffffffffffffffffffffffffff1681526020016002820160009054906101000a900473ffffffffffffffffffffffffffffffffffffffff1673ffffffffffffffffffffffffffffffffffffffff1673ffffffffffffffffffffffffffffffffffffffff16815260200160038201548152602001600482018054600181600116156101000203166002900480601f0160208091040260200160405190810160405280929190818152602001828054600181600116156101000203166002900480156102825780601f1061025757610100808354040283529160200191610282565b820191906000526020600020905b81548152906001019060200180831161026557829003601f168201915b50505050508152602001600582018054600181600116156101000203166002900480601f0160208091040260200160405190810160405280929190818152602001828054600181600116156101000203166002900480156103245780601f106102f957610100808354040283529160200191610324565b820191906000526020600020905b81548152906001019060200180831161030757829003601f168201915b5050505050815260200160068201548152505082828151811061034357fe5b60200260200101819052508080600101915050610103565b50809250505090565b6000429050600060025414156104d6576040518060e001604052808881526020018773ffffffffffffffffffffffffffffffffffffffff1681526020018673ffffffffffffffffffffffffffffffffffffffff168152602001858152602001848152602001838152602001828152506001600060025481526020019081526020016000206000820151816000015560208201518160010160006101000a81548173ffffffffffffffffffffffffffffffffffffffff021916908373ffffffffffffffffffffffffffffffffffffffff16021790555060408201518160020160006101000a81548173ffffffffffffffffffffffffffffffffffffffff021916908373ffffffffffffffffffffffffffffffffffffffff1602179055506060820151816003015560808201518160040190805190602001906104a6929190610763565b5060a08201518160050190805190602001906104c3929190610763565b5060c08201518160060155905050610691565b836001600060016002540381526020019081526020016000206000015414610533576040517f08c379a000000000000000000000000000000000000000000000000000000000815260040161052a90610c16565b60405180910390fd5b6040518060e001604052808881526020018773ffffffffffffffffffffffffffffffffffffffff1681526020018673ffffffffffffffffffffffffffffffffffffffff168152602001858152602001848152602001838152602001828152506001600060025481526020019081526020016000206000820151816000015560208201518160010160006101000a81548173ffffffffffffffffffffffffffffffffffffffff021916908373ffffffffffffffffffffffffffffffffffffffff16021790555060408201518160020160006101000a81548173ffffffffffffffffffffffffffffffffffffffff021916908373ffffffffffffffffffffffffffffffffffffffff160217905550606082015181600301556080820151816004019080519060200190610665929190610763565b5060a0820151816005019080519060200190610682929190610763565b5060c082015181600601559050505b60016002600082825401925050819055507f30d01d358fb0899fe4d50947b2e9301c952d9eed09b14c7ecdcbeed4434557c4878787878588886040516106dd9796959493929190610b99565b60405180910390a150505050505050565b60025481565b6040518060e0016040528060008019168152602001600073ffffffffffffffffffffffffffffffffffffffff168152602001600073ffffffffffffffffffffffffffffffffffffffff168152602001600080191681526020016060815260200160608152602001600081525090565b828054600181600116156101000203166002900490600052602060002090601f016020900481019282601f106107a457805160ff19168380011785556107d2565b828001600101855582156107d2579182015b828111156107d15782518255916020019190600101906107b6565b5b5090506107df91906107e3565b5090565b61080591905b808211156108015760008160009055506001016107e9565b5090565b90565b60008135905061081781610da9565b92915050565b60008135905061082c81610dc0565b92915050565b600082601f83011261084357600080fd5b813561085661085182610c7e565b610c51565b9150808252602083016020830185838301111561087257600080fd5b61087d838284610d56565b50505092915050565b60008060008060008060c0878903121561089f57600080fd5b60006108ad89828a0161081d565b96505060206108be89828a01610808565b95505060406108cf89828a01610808565b94505060606108e089828a0161081d565b935050608087013567ffffffffffffffff8111156108fd57600080fd5b61090989828a01610832565b92505060a087013567ffffffffffffffff81111561092657600080fd5b61093289828a01610832565b9150509295509295509295565b600061094b8383610ab6565b905092915050565b61095c81610d10565b82525050565b61096b81610d10565b82525050565b600061097c82610cba565b6109868185610cdd565b93508360208202850161099885610caa565b8060005b858110156109d457848403895281516109b5858261093f565b94506109c083610cd0565b925060208a0199505060018101905061099c565b50829750879550505050505092915050565b6109ef81610d22565b82525050565b6109fe81610d22565b82525050565b6000610a0f82610cc5565b610a198185610cee565b9350610a29818560208601610d65565b610a3281610d98565b840191505092915050565b6000610a4882610cc5565b610a528185610cff565b9350610a62818560208601610d65565b610a6b81610d98565b840191505092915050565b6000610a83601b83610cff565b91507f5472616e73616374696f6e206572726f72206f636375727265642100000000006000830152602082019050919050565b600060e083016000830151610ace60008601826109e6565b506020830151610ae16020860182610953565b506040830151610af46040860182610953565b506060830151610b0760608601826109e6565b5060808301518482036080860152610b1f8282610a04565b91505060a083015184820360a0860152610b398282610a04565b91505060c0830151610b4e60c0860182610b59565b508091505092915050565b610b6281610d4c565b82525050565b610b7181610d4c565b82525050565b60006020820190508181036000830152610b918184610971565b905092915050565b600060e082019050610bae600083018a6109f5565b610bbb6020830189610962565b610bc86040830188610962565b610bd560608301876109f5565b610be26080830186610b68565b81810360a0830152610bf48185610a3d565b905081810360c0830152610c088184610a3d565b905098975050505050505050565b60006020820190508181036000830152610c2f81610a76565b9050919050565b6000602082019050610c4b6000830184610b68565b92915050565b6000604051905081810181811067ffffffffffffffff82111715610c7457600080fd5b8060405250919050565b600067ffffffffffffffff821115610c9557600080fd5b601f19601f8301169050602081019050919050565b6000819050602082019050919050565b600081519050919050565b600081519050919050565b6000602082019050919050565b600082825260208201905092915050565b600082825260208201905092915050565b600082825260208201905092915050565b6000610d1b82610d2c565b9050919050565b6000819050919050565b600073ffffffffffffffffffffffffffffffffffffffff82169050919050565b6000819050919050565b82818337600083830152505050565b60005b83811015610d83578082015181840152602081019050610d68565b83811115610d92576000848401525b50505050565b6000601f19601f8301169050919050565b610db281610d10565b8114610dbd57600080fd5b50565b610dc981610d22565b8114610dd457600080fd5b5056fea2646970667358221220a2588559b12d3462f3b84953ded9cd9a56c075d3b3ffe55799ffe16b6aa697b864736f6c63430006060033",
  "immutableReferences": {},
  "source": "// SPDX-License-Identifier: MIT\r\npragma solidity ^0.6.6;\r\n\r\nimport './Transactions.sol';\r\n\r\ncontract RawMaterial {\r\n    address Owner;\r\n\r\n    enum packageStatus { atCreator, picked, delivered }\r\n\r\n    address public productid;\r\n    string description;\r\n    uint quantity;\r\n    address transporter;\r\n    address manufacturer;\r\n    address supplier;\r\n    packageStatus status;\r\n    bytes32 packageReceiverDescription;\r\n    address txnContractAddress;\r\n\r\n    constructor (\r\n        address _creatorAddr,\r\n        address _productid,\r\n        string memory _description,\r\n        uint _quantity,\r\n        address _transporterAddr,\r\n        address _manufacturerAddr\r\n    ) public {\r\n        Owner = _creatorAddr;\r\n        productid = _productid;\r\n        description = _description;\r\n        quantity = _quantity;\r\n        transporter = _transporterAddr;\r\n        manufacturer = _manufacturerAddr;\r\n        supplier = _creatorAddr;\r\n        status = packageStatus(0);\r\n        Transactions txnContract = new Transactions(_manufacturerAddr);\r\n        txnContractAddress = address(txnContract);\r\n    }\r\n\r\n\r\n    function getSuppliedRawMaterials () public view returns(\r\n        address,\r\n        string memory,\r\n        uint,\r\n        address,\r\n        address,\r\n        address,\r\n        address\r\n    ) {\r\n        return (productid, description, quantity, supplier, transporter, manufacturer, txnContractAddress);\r\n    }\r\n\r\n    function getRawMaterialStatus() public view returns(\r\n        uint\r\n    ) {\r\n        return uint(status);\r\n    }\r\n\r\n    function updateManufacturerAddress(address addr) public {\r\n        manufacturer = addr;\r\n    }\r\n\r\n\r\n    function pickupPackage(\r\n        address _transporterAddr\r\n    ) public {\r\n        require(\r\n            _transporterAddr == transporter,\r\n            \"Only transporter of the package can pick package\"\r\n        );\r\n        require(\r\n            status == packageStatus(0),\r\n            \"Package must be at Supplier.\"\r\n        );\r\n        status = packageStatus(1);\r\n    }\r\n\r\n    \r\n    function receivedPackage(\r\n        address _manufacturerAddr\r\n    ) public {\r\n\r\n        require(\r\n            _manufacturerAddr == manufacturer,\r\n            \"Only Manufacturer of the package can receieve the package\"\r\n        );\r\n\r\n        require(\r\n            status == packageStatus(1),\r\n            \"Product not picked up yet\"\r\n        );\r\n        status = packageStatus(2);\r\n    }\r\n\r\n\r\n\r\n\r\n}",
  "sourcePath": "C:\\Users\\pisci\\OneDrive\\Escritorio\\victor\\app-supply\\contracts\\RawMaterial.sol",
  "compiler": {
    "name": "solc",
    "version": "0.6.6+commit.6c089d02.Emscripten.clang"
  },
  "schemaVersion": "3.4.8",
  "updatedAt": "2022-07-26T00:01:37.343Z",
  "devdoc": {
    "methods": {}
  },
  "userdoc": {
    "methods": {}
  }
}