{
  "contractName": "SupplyChain",
  "abi": [
    {
      "inputs": [],
      "stateMutability": "nonpayable",
      "type": "constructor"
    },
    {
      "anonymous": false,
      "inputs": [
        {
          "indexed": false,
          "internalType": "address",
          "name": "_address",
          "type": "address"
        },
        {
          "indexed": false,
          "internalType": "string",
          "name": "name",
          "type": "string"
        },
        {
          "indexed": false,
          "internalType": "string",
          "name": "userLoc",
          "type": "string"
        },
        {
          "indexed": false,
          "internalType": "uint256",
          "name": "role",
          "type": "uint256"
        },
        {
          "indexed": false,
          "internalType": "address",
          "name": "userAddr",
          "type": "address"
        }
      ],
      "name": "UserRegister",
      "type": "event"
    },
    {
      "anonymous": false,
      "inputs": [
        {
          "indexed": false,
          "internalType": "address",
          "name": "buyer",
          "type": "address"
        },
        {
          "indexed": true,
          "internalType": "address",
          "name": "seller",
          "type": "address"
        },
        {
          "indexed": false,
          "internalType": "address",
          "name": "packageAddr",
          "type": "address"
        },
        {
          "indexed": false,
          "internalType": "bytes",
          "name": "signature",
          "type": "bytes"
        },
        {
          "indexed": true,
          "internalType": "uint256",
          "name": "timestamp",
          "type": "uint256"
        }
      ],
      "name": "buyEvent",
      "type": "event"
    },
    {
      "anonymous": false,
      "inputs": [
        {
          "indexed": true,
          "internalType": "address",
          "name": "buyer",
          "type": "address"
        },
        {
          "indexed": false,
          "internalType": "address",
          "name": "seller",
          "type": "address"
        },
        {
          "indexed": false,
          "internalType": "address",
          "name": "packageAddr",
          "type": "address"
        },
        {
          "indexed": false,
          "internalType": "bytes",
          "name": "signature",
          "type": "bytes"
        },
        {
          "indexed": true,
          "internalType": "uint256",
          "name": "timestamp",
          "type": "uint256"
        }
      ],
      "name": "respondEvent",
      "type": "event"
    },
    {
      "anonymous": false,
      "inputs": [
        {
          "indexed": false,
          "internalType": "address",
          "name": "seller",
          "type": "address"
        },
        {
          "indexed": false,
          "internalType": "address",
          "name": "buyer",
          "type": "address"
        },
        {
          "indexed": true,
          "internalType": "address",
          "name": "packageAddr",
          "type": "address"
        },
        {
          "indexed": false,
          "internalType": "bytes",
          "name": "signature",
          "type": "bytes"
        },
        {
          "indexed": true,
          "internalType": "uint256",
          "name": "timestamp",
          "type": "uint256"
        }
      ],
      "name": "sendEvent",
      "type": "event"
    },
    {
      "inputs": [],
      "name": "Owner",
      "outputs": [
        {
          "internalType": "address",
          "name": "",
          "type": "address"
        }
      ],
      "stateMutability": "view",
      "type": "function",
      "constant": true
    },
    {
      "inputs": [
        {
          "internalType": "address",
          "name": "",
          "type": "address"
        },
        {
          "internalType": "uint256",
          "name": "",
          "type": "uint256"
        }
      ],
      "name": "manufacturerProducts",
      "outputs": [
        {
          "internalType": "address",
          "name": "",
          "type": "address"
        }
      ],
      "stateMutability": "view",
      "type": "function",
      "constant": true
    },
    {
      "inputs": [
        {
          "internalType": "address",
          "name": "",
          "type": "address"
        },
        {
          "internalType": "uint256",
          "name": "",
          "type": "uint256"
        }
      ],
      "name": "manufacturerRawMaterials",
      "outputs": [
        {
          "internalType": "address",
          "name": "",
          "type": "address"
        }
      ],
      "stateMutability": "view",
      "type": "function",
      "constant": true
    },
    {
      "inputs": [
        {
          "internalType": "address",
          "name": "",
          "type": "address"
        }
      ],
      "name": "userInfo",
      "outputs": [
        {
          "internalType": "string",
          "name": "name",
          "type": "string"
        },
        {
          "internalType": "string",
          "name": "userLoc",
          "type": "string"
        },
        {
          "internalType": "enum SupplyChain.roles",
          "name": "role",
          "type": "uint8"
        },
        {
          "internalType": "address",
          "name": "userAddr",
          "type": "address"
        }
      ],
      "stateMutability": "view",
      "type": "function",
      "constant": true
    },
    {
      "inputs": [
        {
          "internalType": "address",
          "name": "buyer",
          "type": "address"
        },
        {
          "internalType": "address",
          "name": "seller",
          "type": "address"
        },
        {
          "internalType": "address",
          "name": "packageAddr",
          "type": "address"
        },
        {
          "internalType": "bytes",
          "name": "signature",
          "type": "bytes"
        }
      ],
      "name": "requestProduct",
      "outputs": [],
      "stateMutability": "nonpayable",
      "type": "function"
    },
    {
      "inputs": [
        {
          "internalType": "address",
          "name": "buyer",
          "type": "address"
        },
        {
          "internalType": "address",
          "name": "seller",
          "type": "address"
        },
        {
          "internalType": "address",
          "name": "packageAddr",
          "type": "address"
        },
        {
          "internalType": "bytes",
          "name": "signature",
          "type": "bytes"
        }
      ],
      "name": "respondToEntity",
      "outputs": [],
      "stateMutability": "nonpayable",
      "type": "function"
    },
    {
      "inputs": [
        {
          "internalType": "address",
          "name": "p",
          "type": "address"
        },
        {
          "internalType": "bytes32",
          "name": "_hashedMessage",
          "type": "bytes32"
        },
        {
          "internalType": "uint8",
          "name": "_v",
          "type": "uint8"
        },
        {
          "internalType": "bytes32",
          "name": "_r",
          "type": "bytes32"
        },
        {
          "internalType": "bytes32",
          "name": "_s",
          "type": "bytes32"
        }
      ],
      "name": "verify",
      "outputs": [
        {
          "internalType": "bool",
          "name": "",
          "type": "bool"
        }
      ],
      "stateMutability": "pure",
      "type": "function",
      "constant": true
    },
    {
      "inputs": [
        {
          "internalType": "address",
          "name": "buyer",
          "type": "address"
        },
        {
          "internalType": "address",
          "name": "seller",
          "type": "address"
        },
        {
          "internalType": "address",
          "name": "packageAddr",
          "type": "address"
        },
        {
          "internalType": "bytes",
          "name": "signature",
          "type": "bytes"
        }
      ],
      "name": "sendPackageToEntity",
      "outputs": [],
      "stateMutability": "nonpayable",
      "type": "function"
    },
    {
      "inputs": [
        {
          "internalType": "string",
          "name": "_name",
          "type": "string"
        },
        {
          "internalType": "string",
          "name": "_loc",
          "type": "string"
        },
        {
          "internalType": "uint256",
          "name": "_role",
          "type": "uint256"
        },
        {
          "internalType": "address",
          "name": "_userAddr",
          "type": "address"
        }
      ],
      "name": "registerUser",
      "outputs": [],
      "stateMutability": "nonpayable",
      "type": "function"
    },
    {
      "inputs": [
        {
          "internalType": "address",
          "name": "_address",
          "type": "address"
        }
      ],
      "name": "getUserInfo",
      "outputs": [
        {
          "components": [
            {
              "internalType": "string",
              "name": "name",
              "type": "string"
            },
            {
              "internalType": "string",
              "name": "userLoc",
              "type": "string"
            },
            {
              "internalType": "enum SupplyChain.roles",
              "name": "role",
              "type": "uint8"
            },
            {
              "internalType": "address",
              "name": "userAddr",
              "type": "address"
            }
          ],
          "internalType": "struct SupplyChain.userData",
          "name": "",
          "type": "tuple"
        }
      ],
      "stateMutability": "view",
      "type": "function",
      "constant": true
    },
    {
      "inputs": [
        {
          "internalType": "string",
          "name": "_description",
          "type": "string"
        },
        {
          "internalType": "uint256",
          "name": "_quantity",
          "type": "uint256"
        },
        {
          "internalType": "address",
          "name": "_transporterAddr",
          "type": "address"
        },
        {
          "internalType": "address",
          "name": "_manufacturerAddr",
          "type": "address"
        }
      ],
      "name": "createRawMaterialPackage",
      "outputs": [],
      "stateMutability": "nonpayable",
      "type": "function"
    },
    {
      "inputs": [],
      "name": "getAllPackages",
      "outputs": [
        {
          "internalType": "address[]",
          "name": "",
          "type": "address[]"
        }
      ],
      "stateMutability": "view",
      "type": "function",
      "constant": true
    },
    {
      "inputs": [
        {
          "internalType": "address",
          "name": "_addr",
          "type": "address"
        },
        {
          "internalType": "address",
          "name": "_tempAddrManufacturer",
          "type": "address"
        }
      ],
      "name": "manufacturerReceivedRawMaterials",
      "outputs": [],
      "stateMutability": "nonpayable",
      "type": "function"
    },
    {
      "inputs": [
        {
          "internalType": "string",
          "name": "_description",
          "type": "string"
        },
        {
          "internalType": "address[]",
          "name": "_rawAddr",
          "type": "address[]"
        },
        {
          "internalType": "uint256",
          "name": "_quantity",
          "type": "uint256"
        },
        {
          "internalType": "address[]",
          "name": "_transporterAddr",
          "type": "address[]"
        },
        {
          "internalType": "address",
          "name": "_receiverAddr",
          "type": "address"
        }
      ],
      "name": "manufacturerCreatesNewItemProducto",
      "outputs": [],
      "stateMutability": "nonpayable",
      "type": "function"
    },
    {
      "inputs": [],
      "name": "getAllCreatedItemProductos",
      "outputs": [
        {
          "internalType": "address[]",
          "name": "",
          "type": "address[]"
        }
      ],
      "stateMutability": "view",
      "type": "function",
      "constant": true
    }
  ],
  "bytecode": "0x608060405234801561001057600080fd5b50336000806101000a81548173ffffffffffffffffffffffffffffffffffffffff021916908373ffffffffffffffffffffffffffffffffffffffff160217905550615e42806100606000396000f3fe60806040523480156200001157600080fd5b50600436106200010c5760003560e01c8063755bca4d11620000a5578063b8b16ca3116200006f578063b8b16ca314620002e8578063d06f7b551462000308578063e0cf92fe1462000328578063ec5c83d11462000348576200010c565b8063755bca4d146200024e5780638ccc8db7146200027057806395feeb7114620002a6578063b4a99a4e14620002c6576200010c565b8063415122ef11620000e7578063415122ef146200018c578063506535f314620001ac5780635fe2b9ce14620001e25780636386c1c71462000218576200010c565b80630a421f0f1462000111578063187a0e1114620001335780631959a0021462000153575b600080fd5b6200011b62000368565b6040516200012a919062002157565b60405180910390f35b6200015160048036038101906200014b919062001944565b620004e1565b005b6200017160048036038101906200016b919062001763565b6200067d565b604051620001839493929190620021e5565b60405180910390f35b620001aa6004803603810190620001a4919062001a11565b62000812565b005b620001ca6004803603810190620001c4919062001855565b62000a56565b604051620001d991906200217b565b60405180910390f35b620002006004803603810190620001fa9190620018d7565b62000b4e565b6040516200020f919062001f95565b60405180910390f35b62000236600480360381019062000230919062001763565b62000b9a565b604051620002459190620022a6565b60405180910390f35b6200025862000dc6565b60405162000267919062002157565b60405180910390f35b6200028e6004803603810190620002889190620018d7565b62000f3f565b6040516200029d919062001f95565b60405180910390f35b620002c46004803603810190620002be919062001aaf565b62000f8b565b005b620002d0620011a0565b604051620002df919062001f95565b60405180910390f35b620003066004803603810190620003009190620017d0565b620011c5565b005b620003266004803603810190620003209190620017d0565b62001220565b005b620003466004803603810190620003409190620017d0565b6200127b565b005b6200036660048036038101906200036091906200178f565b620012d6565b005b60606000600260003373ffffffffffffffffffffffffffffffffffffffff1673ffffffffffffffffffffffffffffffffffffffff16815260200190815260200160002080549050905060608167ffffffffffffffff81118015620003cb57600080fd5b50604051908082528060200260200182016040528015620003fb5781602001602082028036833780820191505090505b50905060008090505b82811015620004d857600260003373ffffffffffffffffffffffffffffffffffffffff1673ffffffffffffffffffffffffffffffffffffffff16815260200190815260200160002081815481106200045857fe5b9060005260206000200160009054906101000a900473ffffffffffffffffffffffffffffffffffffffff168282815181106200049057fe5b602002602001019073ffffffffffffffffffffffffffffffffffffffff16908173ffffffffffffffffffffffffffffffffffffffff1681525050808060010191505062000404565b50809250505090565b60036004811115620004ef57fe5b600160003373ffffffffffffffffffffffffffffffffffffffff1673ffffffffffffffffffffffffffffffffffffffff16815260200190815260200160002060020160009054906101000a900460ff1660048111156200054b57fe5b146200058e576040517f08c379a0000000000000000000000000000000000000000000000000000000008152600401620005859062002284565b60405180910390fd5b6000338686868686604051620005a49062001496565b620005b59695949392919062002026565b604051809103906000f080158015620005d2573d6000803e3d6000fd5b509050600460003373ffffffffffffffffffffffffffffffffffffffff1673ffffffffffffffffffffffffffffffffffffffff168152602001908152602001600020819080600181540180825580915050600190039060005260206000200160009091909190916101000a81548173ffffffffffffffffffffffffffffffffffffffff021916908373ffffffffffffffffffffffffffffffffffffffff160217905550505050505050565b6001602052806000526040600020600091509050806000018054600181600116156101000203166002900480601f0160208091040260200160405190810160405280929190818152602001828054600181600116156101000203166002900480156200072d5780601f1062000701576101008083540402835291602001916200072d565b820191906000526020600020905b8154815290600101906020018083116200070f57829003601f168201915b505050505090806001018054600181600116156101000203166002900480601f016020809104026020016040519081016040528092919081815260200182805460018160011615610100020316600290048015620007cf5780601f10620007a357610100808354040283529160200191620007cf565b820191906000526020600020905b815481529060010190602001808311620007b157829003601f168201915b5050505050908060020160009054906101000a900460ff16908060020160019054906101000a900473ffffffffffffffffffffffffffffffffffffffff16905084565b3373ffffffffffffffffffffffffffffffffffffffff166000809054906101000a900473ffffffffffffffffffffffffffffffffffffffff1673ffffffffffffffffffffffffffffffffffffffff16146200086c57600080fd5b83600160008373ffffffffffffffffffffffffffffffffffffffff1673ffffffffffffffffffffffffffffffffffffffff1681526020019081526020016000206000019080519060200190620008c4929190620014a4565b5082600160008373ffffffffffffffffffffffffffffffffffffffff1673ffffffffffffffffffffffffffffffffffffffff16815260200190815260200160002060010190805190602001906200091d929190620014a4565b508160048111156200092b57fe5b600160008373ffffffffffffffffffffffffffffffffffffffff1673ffffffffffffffffffffffffffffffffffffffff16815260200190815260200160002060020160006101000a81548160ff021916908360048111156200098957fe5b021790555080600160008373ffffffffffffffffffffffffffffffffffffffff1673ffffffffffffffffffffffffffffffffffffffff16815260200190815260200160002060020160016101000a81548173ffffffffffffffffffffffffffffffffffffffff021916908373ffffffffffffffffffffffffffffffffffffffff1602179055507f75e3c6234d5d9ad8b412c48cb3a3779dbd124c510956f3ba01861e42c6ec4e3e818585858560405162000a48959493929190620020ec565b60405180910390a150505050565b600060606040518060400160405280601c81526020017f19457468657265756d205369676e6564204d6573736167653a0a33320000000081525090506000818760405160200162000aa992919062001f69565b6040516020818303038152906040528051906020012090506001818787876040516000815260200160405260405162000ae6949392919062002198565b6020604051602081039080840390855afa15801562000b09573d6000803e3d6000fd5b5050506020604051035173ffffffffffffffffffffffffffffffffffffffff168873ffffffffffffffffffffffffffffffffffffffff16149250505095945050505050565b6004602052816000526040600020818154811062000b6857fe5b906000526020600020016000915091509054906101000a900473ffffffffffffffffffffffffffffffffffffffff1681565b62000ba46200152b565b600160008373ffffffffffffffffffffffffffffffffffffffff1673ffffffffffffffffffffffffffffffffffffffff168152602001908152602001600020604051806080016040529081600082018054600181600116156101000203166002900480601f01602080910402602001604051908101604052809291908181526020018280546001816001161561010002031660029004801562000c8b5780601f1062000c5f5761010080835404028352916020019162000c8b565b820191906000526020600020905b81548152906001019060200180831162000c6d57829003601f168201915b50505050508152602001600182018054600181600116156101000203166002900480601f01602080910402602001604051908101604052809291908181526020018280546001816001161561010002031660029004801562000d315780601f1062000d055761010080835404028352916020019162000d31565b820191906000526020600020905b81548152906001019060200180831162000d1357829003601f168201915b505050505081526020016002820160009054906101000a900460ff16600481111562000d5957fe5b600481111562000d6557fe5b81526020016002820160019054906101000a900473ffffffffffffffffffffffffffffffffffffffff1673ffffffffffffffffffffffffffffffffffffffff1673ffffffffffffffffffffffffffffffffffffffff16815250509050919050565b60606000600460003373ffffffffffffffffffffffffffffffffffffffff1673ffffffffffffffffffffffffffffffffffffffff16815260200190815260200160002080549050905060608167ffffffffffffffff8111801562000e2957600080fd5b5060405190808252806020026020018201604052801562000e595781602001602082028036833780820191505090505b50905060008090505b8281101562000f3657600460003373ffffffffffffffffffffffffffffffffffffffff1673ffffffffffffffffffffffffffffffffffffffff168152602001908152602001600020818154811062000eb657fe5b9060005260206000200160009054906101000a900473ffffffffffffffffffffffffffffffffffffffff1682828151811062000eee57fe5b602002602001019073ffffffffffffffffffffffffffffffffffffffff16908173ffffffffffffffffffffffffffffffffffffffff1681525050808060010191505062000e62565b50809250505090565b6003602052816000526040600020818154811062000f5957fe5b906000526020600020016000915091509054906101000a900473ffffffffffffffffffffffffffffffffffffffff1681565b6001600481111562000f9957fe5b600160003373ffffffffffffffffffffffffffffffffffffffff1673ffffffffffffffffffffffffffffffffffffffff16815260200190815260200160002060020160009054906101000a900460ff16600481111562000ff557fe5b1462001038576040517f08c379a00000000000000000000000000000000000000000000000000000000081526004016200102f9062002240565b60405180910390fd5b600033600233426040516020016200105292919062001f20565b60405160208183030381529060405260405162001070919062001f50565b602060405180830381855afa1580156200108e573d6000803e3d6000fd5b5050506040513d601f19601f82011682018060405250810190620010b3919062001918565b60601c86868686604051620010c89062001575565b620010d99695949392919062001fb2565b604051809103906000f080158015620010f6573d6000803e3d6000fd5b509050600260003373ffffffffffffffffffffffffffffffffffffffff1673ffffffffffffffffffffffffffffffffffffffff168152602001908152602001600020819080600181540180825580915050600190039060005260206000200160009091909190916101000a81548173ffffffffffffffffffffffffffffffffffffffff021916908373ffffffffffffffffffffffffffffffffffffffff1602179055505050505050565b6000809054906101000a900473ffffffffffffffffffffffffffffffffffffffff1681565b428373ffffffffffffffffffffffffffffffffffffffff167f22561ca0666e99052dd8231a6c5c337204ed5658c357aa6afcd53c207acfac678685856040516200121293929190620020a8565b60405180910390a350505050565b428273ffffffffffffffffffffffffffffffffffffffff167f31f87de04fd141167b8131be7a8ccb2bac63361a15671c96d90c39ddc9ef909d8587856040516200126d93929190620020a8565b60405180910390a350505050565b428473ffffffffffffffffffffffffffffffffffffffff167f9151271dfe612a18bf915ee1609e6f94f62fd775c704a0ae2ef091519f0c9b39858585604051620012c893929190620020a8565b60405180910390a350505050565b60036004811115620012e457fe5b600160008373ffffffffffffffffffffffffffffffffffffffff1673ffffffffffffffffffffffffffffffffffffffff16815260200190815260200160002060020160009054906101000a900460ff1660048111156200134057fe5b1462001383576040517f08c379a00000000000000000000000000000000000000000000000000000000081526004016200137a9062002262565b60405180910390fd5b8173ffffffffffffffffffffffffffffffffffffffff166352b99968826040518263ffffffff1660e01b8152600401620013be919062001f95565b600060405180830381600087803b158015620013d957600080fd5b505af1158015620013ee573d6000803e3d6000fd5b50505050600360008273ffffffffffffffffffffffffffffffffffffffff1673ffffffffffffffffffffffffffffffffffffffff168152602001908152602001600020829080600181540180825580915050600190039060005260206000200160009091909190916101000a81548173ffffffffffffffffffffffffffffffffffffffff021916908373ffffffffffffffffffffffffffffffffffffffff1602179055505050565b611c1280620025f883390190565b828054600181600116156101000203166002900490600052602060002090601f016020900481019282601f10620014e757805160ff191683800117855562001518565b8280016001018555821562001518579182015b8281111562001517578251825591602001919060010190620014fa565b5b50905062001527919062001583565b5090565b60405180608001604052806060815260200160608152602001600060048111156200155257fe5b8152602001600073ffffffffffffffffffffffffffffffffffffffff1681525090565b611c03806200420a83390190565b620015a891905b80821115620015a45760008160009055506001016200158a565b5090565b90565b600081359050620015bc816200258f565b92915050565b600082601f830112620015d457600080fd5b8135620015eb620015e582620022f8565b620022ca565b915081818352602084019350602081019050838560208402820111156200161157600080fd5b60005b838110156200164557816200162a8882620015ab565b84526020840193506020830192505060018101905062001614565b5050505092915050565b6000813590506200166081620025a9565b92915050565b6000815190506200167781620025a9565b92915050565b600082601f8301126200168f57600080fd5b8135620016a6620016a08262002321565b620022ca565b91508082526020830160208301858383011115620016c357600080fd5b620016d0838284620024e2565b50505092915050565b600082601f830112620016eb57600080fd5b813562001702620016fc826200234e565b620022ca565b915080825260208301602083018583830111156200171f57600080fd5b6200172c838284620024e2565b50505092915050565b6000813590506200174681620025c3565b92915050565b6000813590506200175d81620025dd565b92915050565b6000602082840312156200177657600080fd5b60006200178684828501620015ab565b91505092915050565b60008060408385031215620017a357600080fd5b6000620017b385828601620015ab565b9250506020620017c685828601620015ab565b9150509250929050565b60008060008060808587031215620017e757600080fd5b6000620017f787828801620015ab565b94505060206200180a87828801620015ab565b93505060406200181d87828801620015ab565b925050606085013567ffffffffffffffff8111156200183b57600080fd5b62001849878288016200167d565b91505092959194509250565b600080600080600060a086880312156200186e57600080fd5b60006200187e88828901620015ab565b955050602062001891888289016200164f565b9450506040620018a4888289016200174c565b9350506060620018b7888289016200164f565b9250506080620018ca888289016200164f565b9150509295509295909350565b60008060408385031215620018eb57600080fd5b6000620018fb85828601620015ab565b92505060206200190e8582860162001735565b9150509250929050565b6000602082840312156200192b57600080fd5b60006200193b8482850162001666565b91505092915050565b600080600080600060a086880312156200195d57600080fd5b600086013567ffffffffffffffff8111156200197857600080fd5b6200198688828901620016d9565b955050602086013567ffffffffffffffff811115620019a457600080fd5b620019b288828901620015c2565b9450506040620019c58882890162001735565b935050606086013567ffffffffffffffff811115620019e357600080fd5b620019f188828901620015c2565b925050608062001a0488828901620015ab565b9150509295509295909350565b6000806000806080858703121562001a2857600080fd5b600085013567ffffffffffffffff81111562001a4357600080fd5b62001a5187828801620016d9565b945050602085013567ffffffffffffffff81111562001a6f57600080fd5b62001a7d87828801620016d9565b935050604062001a908782880162001735565b925050606062001aa387828801620015ab565b91505092959194509250565b6000806000806080858703121562001ac657600080fd5b600085013567ffffffffffffffff81111562001ae157600080fd5b62001aef87828801620016d9565b945050602062001b028782880162001735565b935050604062001b1587828801620015ab565b925050606062001b2887828801620015ab565b91505092959194509250565b600062001b42838362001b7a565b60208301905092915050565b62001b598162002492565b82525050565b62001b7462001b6e826200241c565b62002527565b82525050565b62001b858162002408565b82525050565b62001b968162002408565b82525050565b600062001ba9826200238b565b62001bb58185620023b9565b935062001bc2836200237b565b8060005b8381101562001bf957815162001bdd888262001b34565b975062001bea83620023ac565b92505060018101905062001bc6565b5085935050505092915050565b62001c118162002430565b82525050565b62001c22816200243c565b82525050565b62001c3d62001c37826200243c565b6200253b565b82525050565b600062001c508262002396565b62001c5c8185620023ca565b935062001c6e818560208601620024f1565b62001c798162002563565b840191505092915050565b600062001c918262002396565b62001c9d8185620023db565b935062001caf818560208601620024f1565b80840191505092915050565b62001cc681620024a6565b82525050565b62001cd781620024a6565b82525050565b600062001cea82620023a1565b62001cf68185620023e6565b935062001d08818560208601620024f1565b62001d138162002563565b840191505092915050565b600062001d2b82620023a1565b62001d378185620023f7565b935062001d49818560208601620024f1565b62001d548162002563565b840191505092915050565b600062001d6e601e83620023f7565b91507f537570706c6965722063616e2075736520746869732066756e6374696f6e00006000830152602082019050919050565b600062001db0602a83620023f7565b91507f4f6e6c79204d616e7566616374757265722063616e206163636573732074686960008301527f732066756e6374696f6e000000000000000000000000000000000000000000006020830152604082019050919050565b600062001e18602983620023f7565b91507f4f6e6c79204d616e7566616374757265722063616e206372656174652049746560008301527f6d50726f647563746f00000000000000000000000000000000000000000000006020830152604082019050919050565b6000608083016000830151848203600086015262001e90828262001cdd565b9150506020830151848203602086015262001eac828262001cdd565b915050604083015162001ec3604086018262001cbb565b50606083015162001ed8606086018262001b7a565b508091505092915050565b62001eee816200247b565b82525050565b62001f0962001f03826200247b565b62002559565b82525050565b62001f1a8162002485565b82525050565b600062001f2e828562001b5f565b60148201915062001f40828462001ef4565b6020820191508190509392505050565b600062001f5e828462001c84565b915081905092915050565b600062001f77828562001c84565b915062001f85828462001c28565b6020820191508190509392505050565b600060208201905062001fac600083018462001b8b565b92915050565b600060c08201905062001fc9600083018962001b4e565b62001fd8602083018862001b4e565b818103604083015262001fec818762001d1e565b905062001ffd606083018662001ee3565b6200200c608083018562001b8b565b6200201b60a083018462001b8b565b979650505050505050565b600060c0820190506200203d600083018962001b4e565b818103602083015262002051818862001d1e565b9050818103604083015262002067818762001b9c565b905062002078606083018662001ee3565b81810360808301526200208c818562001b9c565b90506200209d60a083018462001b8b565b979650505050505050565b6000606082019050620020bf600083018662001b8b565b620020ce602083018562001b8b565b8181036040830152620020e2818462001c43565b9050949350505050565b600060a08201905062002103600083018862001b8b565b818103602083015262002117818762001d1e565b905081810360408301526200212d818662001d1e565b90506200213e606083018562001ee3565b6200214d608083018462001b8b565b9695505050505050565b6000602082019050818103600083015262002173818462001b9c565b905092915050565b600060208201905062002192600083018462001c06565b92915050565b6000608082019050620021af600083018762001c17565b620021be602083018662001f0f565b620021cd604083018562001c17565b620021dc606083018462001c17565b95945050505050565b6000608082019050818103600083015262002201818762001d1e565b9050818103602083015262002217818662001d1e565b905062002228604083018562001ccc565b62002237606083018462001b8b565b95945050505050565b600060208201905081810360008301526200225b8162001d5f565b9050919050565b600060208201905081810360008301526200227d8162001da1565b9050919050565b600060208201905081810360008301526200229f8162001e09565b9050919050565b60006020820190508181036000830152620022c2818462001e71565b905092915050565b6000604051905081810181811067ffffffffffffffff82111715620022ee57600080fd5b8060405250919050565b600067ffffffffffffffff8211156200231057600080fd5b602082029050602081019050919050565b600067ffffffffffffffff8211156200233957600080fd5b601f19601f8301169050602081019050919050565b600067ffffffffffffffff8211156200236657600080fd5b601f19601f8301169050602081019050919050565b6000819050602082019050919050565b600081519050919050565b600081519050919050565b600081519050919050565b6000602082019050919050565b600082825260208201905092915050565b600082825260208201905092915050565b600081905092915050565b600082825260208201905092915050565b600082825260208201905092915050565b600062002415826200245b565b9050919050565b600062002429826200245b565b9050919050565b60008115159050919050565b6000819050919050565b6000819050620024568262002581565b919050565b600073ffffffffffffffffffffffffffffffffffffffff82169050919050565b6000819050919050565b600060ff82169050919050565b60006200249f82620024ba565b9050919050565b6000620024b38262002446565b9050919050565b6000620024c782620024ce565b9050919050565b6000620024db826200245b565b9050919050565b82818337600083830152505050565b60005b8381101562002511578082015181840152602081019050620024f4565b8381111562002521576000848401525b50505050565b6000620025348262002545565b9050919050565b6000819050919050565b6000620025528262002574565b9050919050565b6000819050919050565b6000601f19601f8301169050919050565b60008160601b9050919050565b600581106200258c57fe5b50565b6200259a8162002408565b8114620025a657600080fd5b50565b620025b4816200243c565b8114620025c057600080fd5b50565b620025ce816200247b565b8114620025da57600080fd5b50565b620025e88162002485565b8114620025f457600080fd5b5056fe60806040523480156200001157600080fd5b5060405162001c1238038062001c12833981810160405260c08110156200003757600080fd5b8101908080519060200190929190805160405193929190846401000000008211156200006257600080fd5b838201915060208201858111156200007957600080fd5b82518660018202830111640100000000821117156200009757600080fd5b8083526020830192505050908051906020019080838360005b83811015620000cd578082015181840152602081019050620000b0565b50505050905090810190601f168015620000fb5780820380516001836020036101000a031916815260200191505b50604052602001805160405193929190846401000000008211156200011f57600080fd5b838201915060208201858111156200013657600080fd5b82518660208202830111640100000000821117156200015457600080fd5b8083526020830192505050908051906020019060200280838360005b838110156200018d57808201518184015260208101905062000170565b505050509050016040526020018051906020019092919080516040519392919084640100000000821115620001c157600080fd5b83820191506020820185811115620001d857600080fd5b8251866020820283011164010000000082111715620001f657600080fd5b8083526020830192505050908051906020019060200280838360005b838110156200022f57808201518184015260208101905062000212565b5050505090500160405260200180519060200190929190505050856000806101000a81548173ffffffffffffffffffffffffffffffffffffffff021916908373ffffffffffffffffffffffffffffffffffffffff16021790555085600460006101000a81548173ffffffffffffffffffffffffffffffffffffffff021916908373ffffffffffffffffffffffffffffffffffffffff1602179055508460019080519060200190620002e292919062000443565b508360029080519060200190620002fb929190620004ca565b508260078190555081600390805190602001906200031b929190620004ca565b5080600560006101000a81548173ffffffffffffffffffffffffffffffffffffffff021916908373ffffffffffffffffffffffffffffffffffffffff160217905550600060068111156200036b57fe5b600860006101000a81548160ff021916908360068111156200038957fe5b02179055506000866040516200039f9062000559565b808273ffffffffffffffffffffffffffffffffffffffff1673ffffffffffffffffffffffffffffffffffffffff168152602001915050604051809103906000f080158015620003f2573d6000803e3d6000fd5b50905080600860016101000a81548173ffffffffffffffffffffffffffffffffffffffff021916908373ffffffffffffffffffffffffffffffffffffffff16021790555050505050505050620005d5565b828054600181600116156101000203166002900490600052602060002090601f016020900481019282601f106200048657805160ff1916838001178555620004b7565b82800160010185558215620004b7579182015b82811115620004b657825182559160200191906001019062000499565b5b509050620004c6919062000567565b5090565b82805482825590600052602060002090810192821562000546579160200282015b82811115620005455782518260006101000a81548173ffffffffffffffffffffffffffffffffffffffff021916908373ffffffffffffffffffffffffffffffffffffffff16021790555091602001919060010190620004eb565b5b5090506200055591906200058f565b5090565b610f208062000cf283390190565b6200058c91905b80821115620005885760008160009055506001016200056e565b5090565b90565b620005d291905b80821115620005ce57600081816101000a81549073ffffffffffffffffffffffffffffffffffffffff02191690555060010162000596565b5090565b90565b61070d80620005e56000396000f3fe608060405234801561001057600080fd5b50600436106100415760003560e01c806348a40d20146100465780639296057b1461009057806394c60714146100e8575b600080fd5b61004e61012c565b604051808273ffffffffffffffffffffffffffffffffffffffff1673ffffffffffffffffffffffffffffffffffffffff16815260200191505060405180910390f35b6100d2600480360360208110156100a657600080fd5b81019080803573ffffffffffffffffffffffffffffffffffffffff169060200190929190505050610156565b6040518082815260200191505060405180910390f35b61012a600480360360208110156100fe57600080fd5b81019080803573ffffffffffffffffffffffffffffffffffffffff1690602001909291905050506103f1565b005b6000600860019054906101000a900473ffffffffffffffffffffffffffffffffffffffff16905090565b6000600560009054906101000a900473ffffffffffffffffffffffffffffffffffffffff1673ffffffffffffffffffffffffffffffffffffffff168273ffffffffffffffffffffffffffffffffffffffff16146101fe576040517f08c379a000000000000000000000000000000000000000000000000000000000815260040180806020018281038252602681526020018061068b6026913960400191505060405180910390fd5b6001600860009054906101000a900460ff16600681111561021b57fe5b101561028f576040517f08c379a00000000000000000000000000000000000000000000000000000000081526004018080602001828103825260198152602001807f50726f64756374206e6f74207069636b6564207570207965740000000000000081525060200191505060405180910390fd5b6001600681111561029c57fe5b60068111156102a757fe5b600860009054906101000a900460ff1660068111156102c257fe5b14156103e757600360068111156102d557fe5b600860006101000a81548160ff021916908360068111156102f257fe5b0217905550600560009054906101000a900473ffffffffffffffffffffffffffffffffffffffff1673ffffffffffffffffffffffffffffffffffffffff1660036001600380549050038154811061034557fe5b9060005260206000200160009054906101000a900473ffffffffffffffffffffffffffffffffffffffff1673ffffffffffffffffffffffffffffffffffffffff163073ffffffffffffffffffffffffffffffffffffffff167f7e89c4b1a4e2b51aae84eb1f90e8a34cb792ece5ac5cb63db4830c891220b28d60026003604051808381526020018281526020019250505060405180910390a4600190506103ec565b600090505b919050565b60036001600380549050038154811061040657fe5b9060005260206000200160009054906101000a900473ffffffffffffffffffffffffffffffffffffffff1673ffffffffffffffffffffffffffffffffffffffff168173ffffffffffffffffffffffffffffffffffffffff16146104b4576040517f08c379a00000000000000000000000000000000000000000000000000000000081526004018080602001828103825260278152602001806106b16027913960400191505060405180910390fd5b600060068111156104c157fe5b60068111156104cc57fe5b600860009054906101000a900460ff1660068111156104e757fe5b1461055a576040517f08c379a00000000000000000000000000000000000000000000000000000000081526004018080602001828103825260208152602001807f5061636b616765206d757374206265206174204d616e7566616374757265722e81525060200191505060405180910390fd5b600073ffffffffffffffffffffffffffffffffffffffff16600560009054906101000a900473ffffffffffffffffffffffffffffffffffffffff1673ffffffffffffffffffffffffffffffffffffffff161461068757600160068111156105bd57fe5b600860006101000a81548160ff021916908360068111156105da57fe5b0217905550600560009054906101000a900473ffffffffffffffffffffffffffffffffffffffff1673ffffffffffffffffffffffffffffffffffffffff168173ffffffffffffffffffffffffffffffffffffffff163073ffffffffffffffffffffffffffffffffffffffff167f7e89c4b1a4e2b51aae84eb1f90e8a34cb792ece5ac5cb63db4830c891220b28d600180604051808381526020018281526020019250505060405180910390a45b5056fe4f6e6c792057686f6c6573616c65722063616e2063616c6c20746869732066756e6374696f6e4f6e6c79205472616e73706f727465722063616e2063616c6c20746869732066756e6374696f6ea2646970667358221220c0721722201827db4af5e20fa257ca26161cbd1b73ab417af86615519a2552ae64736f6c634300060600336080604052600060025534801561001557600080fd5b50604051610f20380380610f2083398181016040528101906100379190610092565b806000806101000a81548173ffffffffffffffffffffffffffffffffffffffff021916908373ffffffffffffffffffffffffffffffffffffffff16021790555050610104565b60008151905061008c816100ed565b92915050565b6000602082840312156100a457600080fd5b60006100b28482850161007d565b91505092915050565b60006100c6826100cd565b9050919050565b600073ffffffffffffffffffffffffffffffffffffffff82169050919050565b6100f6816100bb565b811461010157600080fd5b50565b610e0d806101136000396000f3fe608060405234801561001057600080fd5b50600436106100415760003560e01c806327506f53146100465780633626a3681461006457806378ce136514610080575b600080fd5b61004e61009e565b60405161005b9190610b77565b60405180910390f35b61007e60048036038101906100799190610886565b610364565b005b6100886106ee565b6040516100959190610c36565b60405180910390f35b60606000600254905060608167ffffffffffffffff811180156100c057600080fd5b506040519080825280602002602001820160405280156100fa57816020015b6100e76106f4565b8152602001906001900390816100df5790505b50905060008090505b8281101561035b57600160008281526020019081526020016000206040518060e0016040529081600082015481526020016001820160009054906101000a900473ffffffffffffffffffffffffffffffffffffffff1673ffffffffffffffffffffffffffffffffffffffff1673ffffffffffffffffffffffffffffffffffffffff1681526020016002820160009054906101000a900473ffffffffffffffffffffffffffffffffffffffff1673ffffffffffffffffffffffffffffffffffffffff1673ffffffffffffffffffffffffffffffffffffffff16815260200160038201548152602001600482018054600181600116156101000203166002900480601f0160208091040260200160405190810160405280929190818152602001828054600181600116156101000203166002900480156102825780601f1061025757610100808354040283529160200191610282565b820191906000526020600020905b81548152906001019060200180831161026557829003601f168201915b50505050508152602001600582018054600181600116156101000203166002900480601f0160208091040260200160405190810160405280929190818152602001828054600181600116156101000203166002900480156103245780601f106102f957610100808354040283529160200191610324565b820191906000526020600020905b81548152906001019060200180831161030757829003601f168201915b5050505050815260200160068201548152505082828151811061034357fe5b60200260200101819052508080600101915050610103565b50809250505090565b6000429050600060025414156104d6576040518060e001604052808881526020018773ffffffffffffffffffffffffffffffffffffffff1681526020018673ffffffffffffffffffffffffffffffffffffffff168152602001858152602001848152602001838152602001828152506001600060025481526020019081526020016000206000820151816000015560208201518160010160006101000a81548173ffffffffffffffffffffffffffffffffffffffff021916908373ffffffffffffffffffffffffffffffffffffffff16021790555060408201518160020160006101000a81548173ffffffffffffffffffffffffffffffffffffffff021916908373ffffffffffffffffffffffffffffffffffffffff1602179055506060820151816003015560808201518160040190805190602001906104a6929190610763565b5060a08201518160050190805190602001906104c3929190610763565b5060c08201518160060155905050610691565b836001600060016002540381526020019081526020016000206000015414610533576040517f08c379a000000000000000000000000000000000000000000000000000000000815260040161052a90610c16565b60405180910390fd5b6040518060e001604052808881526020018773ffffffffffffffffffffffffffffffffffffffff1681526020018673ffffffffffffffffffffffffffffffffffffffff168152602001858152602001848152602001838152602001828152506001600060025481526020019081526020016000206000820151816000015560208201518160010160006101000a81548173ffffffffffffffffffffffffffffffffffffffff021916908373ffffffffffffffffffffffffffffffffffffffff16021790555060408201518160020160006101000a81548173ffffffffffffffffffffffffffffffffffffffff021916908373ffffffffffffffffffffffffffffffffffffffff160217905550606082015181600301556080820151816004019080519060200190610665929190610763565b5060a0820151816005019080519060200190610682929190610763565b5060c082015181600601559050505b60016002600082825401925050819055507f30d01d358fb0899fe4d50947b2e9301c952d9eed09b14c7ecdcbeed4434557c4878787878588886040516106dd9796959493929190610b99565b60405180910390a150505050505050565b60025481565b6040518060e0016040528060008019168152602001600073ffffffffffffffffffffffffffffffffffffffff168152602001600073ffffffffffffffffffffffffffffffffffffffff168152602001600080191681526020016060815260200160608152602001600081525090565b828054600181600116156101000203166002900490600052602060002090601f016020900481019282601f106107a457805160ff19168380011785556107d2565b828001600101855582156107d2579182015b828111156107d15782518255916020019190600101906107b6565b5b5090506107df91906107e3565b5090565b61080591905b808211156108015760008160009055506001016107e9565b5090565b90565b60008135905061081781610da9565b92915050565b60008135905061082c81610dc0565b92915050565b600082601f83011261084357600080fd5b813561085661085182610c7e565b610c51565b9150808252602083016020830185838301111561087257600080fd5b61087d838284610d56565b50505092915050565b60008060008060008060c0878903121561089f57600080fd5b60006108ad89828a0161081d565b96505060206108be89828a01610808565b95505060406108cf89828a01610808565b94505060606108e089828a0161081d565b935050608087013567ffffffffffffffff8111156108fd57600080fd5b61090989828a01610832565b92505060a087013567ffffffffffffffff81111561092657600080fd5b61093289828a01610832565b9150509295509295509295565b600061094b8383610ab6565b905092915050565b61095c81610d10565b82525050565b61096b81610d10565b82525050565b600061097c82610cba565b6109868185610cdd565b93508360208202850161099885610caa565b8060005b858110156109d457848403895281516109b5858261093f565b94506109c083610cd0565b925060208a0199505060018101905061099c565b50829750879550505050505092915050565b6109ef81610d22565b82525050565b6109fe81610d22565b82525050565b6000610a0f82610cc5565b610a198185610cee565b9350610a29818560208601610d65565b610a3281610d98565b840191505092915050565b6000610a4882610cc5565b610a528185610cff565b9350610a62818560208601610d65565b610a6b81610d98565b840191505092915050565b6000610a83601b83610cff565b91507f5472616e73616374696f6e206572726f72206f636375727265642100000000006000830152602082019050919050565b600060e083016000830151610ace60008601826109e6565b506020830151610ae16020860182610953565b506040830151610af46040860182610953565b506060830151610b0760608601826109e6565b5060808301518482036080860152610b1f8282610a04565b91505060a083015184820360a0860152610b398282610a04565b91505060c0830151610b4e60c0860182610b59565b508091505092915050565b610b6281610d4c565b82525050565b610b7181610d4c565b82525050565b60006020820190508181036000830152610b918184610971565b905092915050565b600060e082019050610bae600083018a6109f5565b610bbb6020830189610962565b610bc86040830188610962565b610bd560608301876109f5565b610be26080830186610b68565b81810360a0830152610bf48185610a3d565b905081810360c0830152610c088184610a3d565b905098975050505050505050565b60006020820190508181036000830152610c2f81610a76565b9050919050565b6000602082019050610c4b6000830184610b68565b92915050565b6000604051905081810181811067ffffffffffffffff82111715610c7457600080fd5b8060405250919050565b600067ffffffffffffffff821115610c9557600080fd5b601f19601f8301169050602081019050919050565b6000819050602082019050919050565b600081519050919050565b600081519050919050565b6000602082019050919050565b600082825260208201905092915050565b600082825260208201905092915050565b600082825260208201905092915050565b6000610d1b82610d2c565b9050919050565b6000819050919050565b600073ffffffffffffffffffffffffffffffffffffffff82169050919050565b6000819050919050565b82818337600083830152505050565b60005b83811015610d83578082015181840152602081019050610d68565b83811115610d92576000848401525b50505050565b6000601f19601f8301169050919050565b610db281610d10565b8114610dbd57600080fd5b50565b610dc981610d22565b8114610dd457600080fd5b5056fea2646970667358221220a2588559b12d3462f3b84953ded9cd9a56c075d3b3ffe55799ffe16b6aa697b864736f6c63430006060033608060405234801561001057600080fd5b50604051611c03380380611c03833981810160405260c081101561003357600080fd5b8101908080519060200190929190805190602001909291908051604051939291908464010000000082111561006757600080fd5b8382019150602082018581111561007d57600080fd5b825186600182028301116401000000008211171561009a57600080fd5b8083526020830192505050908051906020019080838360005b838110156100ce5780820151818401526020810190506100b3565b50505050905090810190601f1680156100fb5780820380516001836020036101000a031916815260200191505b50604052602001805190602001909291908051906020019092919080519060200190929190505050856000806101000a81548173ffffffffffffffffffffffffffffffffffffffff021916908373ffffffffffffffffffffffffffffffffffffffff16021790555084600160006101000a81548173ffffffffffffffffffffffffffffffffffffffff021916908373ffffffffffffffffffffffffffffffffffffffff16021790555083600290805190602001906101ba929190610365565b508260038190555081600460006101000a81548173ffffffffffffffffffffffffffffffffffffffff021916908373ffffffffffffffffffffffffffffffffffffffff16021790555080600560006101000a81548173ffffffffffffffffffffffffffffffffffffffff021916908373ffffffffffffffffffffffffffffffffffffffff16021790555085600660006101000a81548173ffffffffffffffffffffffffffffffffffffffff021916908373ffffffffffffffffffffffffffffffffffffffff1602179055506000600281111561029257fe5b600660146101000a81548160ff021916908360028111156102af57fe5b02179055506000816040516102c3906103e5565b808273ffffffffffffffffffffffffffffffffffffffff1673ffffffffffffffffffffffffffffffffffffffff168152602001915050604051809103906000f080158015610315573d6000803e3d6000fd5b50905080600860006101000a81548173ffffffffffffffffffffffffffffffffffffffff021916908373ffffffffffffffffffffffffffffffffffffffff16021790555050505050505050610417565b828054600181600116156101000203166002900490600052602060002090601f016020900481019282601f106103a657805160ff19168380011785556103d4565b828001600101855582156103d4579182015b828111156103d35782518255916020019190600101906103b8565b5b5090506103e191906103f2565b5090565b610f2080610ce383390190565b61041491905b808211156104105760008160009055506001016103f8565b5090565b90565b6108bd806104266000396000f3fe608060405234801561001057600080fd5b50600436106100625760003560e01c806350e073bc1461006757806352b99968146100ab5780636b099dca146100ef578063807235201461010d578063d9f20edf14610296578063e594caa5146102e0575b600080fd5b6100a96004803603602081101561007d57600080fd5b81019080803573ffffffffffffffffffffffffffffffffffffffff169060200190929190505050610324565b005b6100ed600480360360208110156100c157600080fd5b81019080803573ffffffffffffffffffffffffffffffffffffffff169060200190929190505050610368565b005b6100f76104e5565b6040518082815260200191505060405180910390f35b610115610507565b604051808873ffffffffffffffffffffffffffffffffffffffff1673ffffffffffffffffffffffffffffffffffffffff168152602001806020018781526020018673ffffffffffffffffffffffffffffffffffffffff1673ffffffffffffffffffffffffffffffffffffffff1681526020018573ffffffffffffffffffffffffffffffffffffffff1673ffffffffffffffffffffffffffffffffffffffff1681526020018473ffffffffffffffffffffffffffffffffffffffff1673ffffffffffffffffffffffffffffffffffffffff1681526020018373ffffffffffffffffffffffffffffffffffffffff1673ffffffffffffffffffffffffffffffffffffffff168152602001828103825288818151815260200191508051906020019080838360005b8381101561025557808201518184015260208101905061023a565b50505050905090810190601f1680156102825780820380516001836020036101000a031916815260200191505b509850505050505050505060405180910390f35b61029e61067a565b604051808273ffffffffffffffffffffffffffffffffffffffff1673ffffffffffffffffffffffffffffffffffffffff16815260200191505060405180910390f35b610322600480360360208110156102f657600080fd5b81019080803573ffffffffffffffffffffffffffffffffffffffff1690602001909291905050506106a0565b005b80600560006101000a81548173ffffffffffffffffffffffffffffffffffffffff021916908373ffffffffffffffffffffffffffffffffffffffff16021790555050565b600560009054906101000a900473ffffffffffffffffffffffffffffffffffffffff1673ffffffffffffffffffffffffffffffffffffffff168173ffffffffffffffffffffffffffffffffffffffff161461040e576040517f08c379a000000000000000000000000000000000000000000000000000000000815260040180806020018281038252603981526020018061081f6039913960400191505060405180910390fd5b6001600281111561041b57fe5b600281111561042657fe5b600660149054906101000a900460ff16600281111561044157fe5b146104b4576040517f08c379a00000000000000000000000000000000000000000000000000000000081526004018080602001828103825260198152602001807f50726f64756374206e6f74207069636b6564207570207965740000000000000081525060200191505060405180910390fd5b6002808111156104c057fe5b600660146101000a81548160ff021916908360028111156104dd57fe5b021790555050565b6000600660149054906101000a900460ff16600281111561050257fe5b905090565b600060606000806000806000600160009054906101000a900473ffffffffffffffffffffffffffffffffffffffff166002600354600660009054906101000a900473ffffffffffffffffffffffffffffffffffffffff16600460009054906101000a900473ffffffffffffffffffffffffffffffffffffffff16600560009054906101000a900473ffffffffffffffffffffffffffffffffffffffff16600860009054906101000a900473ffffffffffffffffffffffffffffffffffffffff16858054600181600116156101000203166002900480601f01602080910402602001604051908101604052809291908181526020018280546001816001161561010002031660029004801561065c5780601f106106315761010080835404028352916020019161065c565b820191906000526020600020905b81548152906001019060200180831161063f57829003601f168201915b50505050509550965096509650965096509650965090919293949596565b600160009054906101000a900473ffffffffffffffffffffffffffffffffffffffff1681565b600460009054906101000a900473ffffffffffffffffffffffffffffffffffffffff1673ffffffffffffffffffffffffffffffffffffffff168173ffffffffffffffffffffffffffffffffffffffff1614610746576040517f08c379a00000000000000000000000000000000000000000000000000000000081526004018080602001828103825260308152602001806108586030913960400191505060405180910390fd5b6000600281111561075357fe5b600281111561075e57fe5b600660149054906101000a900460ff16600281111561077957fe5b146107ec576040517f08c379a000000000000000000000000000000000000000000000000000000000815260040180806020018281038252601c8152602001807f5061636b616765206d75737420626520617420537570706c6965722e0000000081525060200191505060405180910390fd5b600160028111156107f957fe5b600660146101000a81548160ff0219169083600281111561081657fe5b02179055505056fe4f6e6c79204d616e756661637475726572206f6620746865207061636b6167652063616e20726563656965766520746865207061636b6167654f6e6c79207472616e73706f72746572206f6620746865207061636b6167652063616e207069636b207061636b616765a2646970667358221220c13b3fe2c9f434e3cebe2be0641147ca46fcf5bba73a8bd42ef6967774bbecad64736f6c634300060600336080604052600060025534801561001557600080fd5b50604051610f20380380610f2083398181016040528101906100379190610092565b806000806101000a81548173ffffffffffffffffffffffffffffffffffffffff021916908373ffffffffffffffffffffffffffffffffffffffff16021790555050610104565b60008151905061008c816100ed565b92915050565b6000602082840312156100a457600080fd5b60006100b28482850161007d565b91505092915050565b60006100c6826100cd565b9050919050565b600073ffffffffffffffffffffffffffffffffffffffff82169050919050565b6100f6816100bb565b811461010157600080fd5b50565b610e0d806101136000396000f3fe608060405234801561001057600080fd5b50600436106100415760003560e01c806327506f53146100465780633626a3681461006457806378ce136514610080575b600080fd5b61004e61009e565b60405161005b9190610b77565b60405180910390f35b61007e60048036038101906100799190610886565b610364565b005b6100886106ee565b6040516100959190610c36565b60405180910390f35b60606000600254905060608167ffffffffffffffff811180156100c057600080fd5b506040519080825280602002602001820160405280156100fa57816020015b6100e76106f4565b8152602001906001900390816100df5790505b50905060008090505b8281101561035b57600160008281526020019081526020016000206040518060e0016040529081600082015481526020016001820160009054906101000a900473ffffffffffffffffffffffffffffffffffffffff1673ffffffffffffffffffffffffffffffffffffffff1673ffffffffffffffffffffffffffffffffffffffff1681526020016002820160009054906101000a900473ffffffffffffffffffffffffffffffffffffffff1673ffffffffffffffffffffffffffffffffffffffff1673ffffffffffffffffffffffffffffffffffffffff16815260200160038201548152602001600482018054600181600116156101000203166002900480601f0160208091040260200160405190810160405280929190818152602001828054600181600116156101000203166002900480156102825780601f1061025757610100808354040283529160200191610282565b820191906000526020600020905b81548152906001019060200180831161026557829003601f168201915b50505050508152602001600582018054600181600116156101000203166002900480601f0160208091040260200160405190810160405280929190818152602001828054600181600116156101000203166002900480156103245780601f106102f957610100808354040283529160200191610324565b820191906000526020600020905b81548152906001019060200180831161030757829003601f168201915b5050505050815260200160068201548152505082828151811061034357fe5b60200260200101819052508080600101915050610103565b50809250505090565b6000429050600060025414156104d6576040518060e001604052808881526020018773ffffffffffffffffffffffffffffffffffffffff1681526020018673ffffffffffffffffffffffffffffffffffffffff168152602001858152602001848152602001838152602001828152506001600060025481526020019081526020016000206000820151816000015560208201518160010160006101000a81548173ffffffffffffffffffffffffffffffffffffffff021916908373ffffffffffffffffffffffffffffffffffffffff16021790555060408201518160020160006101000a81548173ffffffffffffffffffffffffffffffffffffffff021916908373ffffffffffffffffffffffffffffffffffffffff1602179055506060820151816003015560808201518160040190805190602001906104a6929190610763565b5060a08201518160050190805190602001906104c3929190610763565b5060c08201518160060155905050610691565b836001600060016002540381526020019081526020016000206000015414610533576040517f08c379a000000000000000000000000000000000000000000000000000000000815260040161052a90610c16565b60405180910390fd5b6040518060e001604052808881526020018773ffffffffffffffffffffffffffffffffffffffff1681526020018673ffffffffffffffffffffffffffffffffffffffff168152602001858152602001848152602001838152602001828152506001600060025481526020019081526020016000206000820151816000015560208201518160010160006101000a81548173ffffffffffffffffffffffffffffffffffffffff021916908373ffffffffffffffffffffffffffffffffffffffff16021790555060408201518160020160006101000a81548173ffffffffffffffffffffffffffffffffffffffff021916908373ffffffffffffffffffffffffffffffffffffffff160217905550606082015181600301556080820151816004019080519060200190610665929190610763565b5060a0820151816005019080519060200190610682929190610763565b5060c082015181600601559050505b60016002600082825401925050819055507f30d01d358fb0899fe4d50947b2e9301c952d9eed09b14c7ecdcbeed4434557c4878787878588886040516106dd9796959493929190610b99565b60405180910390a150505050505050565b60025481565b6040518060e0016040528060008019168152602001600073ffffffffffffffffffffffffffffffffffffffff168152602001600073ffffffffffffffffffffffffffffffffffffffff168152602001600080191681526020016060815260200160608152602001600081525090565b828054600181600116156101000203166002900490600052602060002090601f016020900481019282601f106107a457805160ff19168380011785556107d2565b828001600101855582156107d2579182015b828111156107d15782518255916020019190600101906107b6565b5b5090506107df91906107e3565b5090565b61080591905b808211156108015760008160009055506001016107e9565b5090565b90565b60008135905061081781610da9565b92915050565b60008135905061082c81610dc0565b92915050565b600082601f83011261084357600080fd5b813561085661085182610c7e565b610c51565b9150808252602083016020830185838301111561087257600080fd5b61087d838284610d56565b50505092915050565b60008060008060008060c0878903121561089f57600080fd5b60006108ad89828a0161081d565b96505060206108be89828a01610808565b95505060406108cf89828a01610808565b94505060606108e089828a0161081d565b935050608087013567ffffffffffffffff8111156108fd57600080fd5b61090989828a01610832565b92505060a087013567ffffffffffffffff81111561092657600080fd5b61093289828a01610832565b9150509295509295509295565b600061094b8383610ab6565b905092915050565b61095c81610d10565b82525050565b61096b81610d10565b82525050565b600061097c82610cba565b6109868185610cdd565b93508360208202850161099885610caa565b8060005b858110156109d457848403895281516109b5858261093f565b94506109c083610cd0565b925060208a0199505060018101905061099c565b50829750879550505050505092915050565b6109ef81610d22565b82525050565b6109fe81610d22565b82525050565b6000610a0f82610cc5565b610a198185610cee565b9350610a29818560208601610d65565b610a3281610d98565b840191505092915050565b6000610a4882610cc5565b610a528185610cff565b9350610a62818560208601610d65565b610a6b81610d98565b840191505092915050565b6000610a83601b83610cff565b91507f5472616e73616374696f6e206572726f72206f636375727265642100000000006000830152602082019050919050565b600060e083016000830151610ace60008601826109e6565b506020830151610ae16020860182610953565b506040830151610af46040860182610953565b506060830151610b0760608601826109e6565b5060808301518482036080860152610b1f8282610a04565b91505060a083015184820360a0860152610b398282610a04565b91505060c0830151610b4e60c0860182610b59565b508091505092915050565b610b6281610d4c565b82525050565b610b7181610d4c565b82525050565b60006020820190508181036000830152610b918184610971565b905092915050565b600060e082019050610bae600083018a6109f5565b610bbb6020830189610962565b610bc86040830188610962565b610bd560608301876109f5565b610be26080830186610b68565b81810360a0830152610bf48185610a3d565b905081810360c0830152610c088184610a3d565b905098975050505050505050565b60006020820190508181036000830152610c2f81610a76565b9050919050565b6000602082019050610c4b6000830184610b68565b92915050565b6000604051905081810181811067ffffffffffffffff82111715610c7457600080fd5b8060405250919050565b600067ffffffffffffffff821115610c9557600080fd5b601f19601f8301169050602081019050919050565b6000819050602082019050919050565b600081519050919050565b600081519050919050565b6000602082019050919050565b600082825260208201905092915050565b600082825260208201905092915050565b600082825260208201905092915050565b6000610d1b82610d2c565b9050919050565b6000819050919050565b600073ffffffffffffffffffffffffffffffffffffffff82169050919050565b6000819050919050565b82818337600083830152505050565b60005b83811015610d83578082015181840152602081019050610d68565b83811115610d92576000848401525b50505050565b6000601f19601f8301169050919050565b610db281610d10565b8114610dbd57600080fd5b50565b610dc981610d22565b8114610dd457600080fd5b5056fea2646970667358221220a2588559b12d3462f3b84953ded9cd9a56c075d3b3ffe55799ffe16b6aa697b864736f6c63430006060033a2646970667358221220b52588b2680f5d816e611261ceed74947bbb9e8c074d219adfc7b8bac790d37964736f6c63430006060033",
  "immutableReferences": {},
  "source": "// SPDX-License-Identifier: MIT\r\npragma solidity ^0.6.6;\r\npragma experimental ABIEncoderV2;\r\n\r\nimport './RawMaterial.sol';\r\nimport './Product.sol';\r\n\r\ncontract SupplyChain {\r\n    address public Owner;\r\n\r\n    //Cosntruct\r\n    constructor() public {\r\n        Owner = msg.sender;\r\n    }\r\n\r\n    modifier onlyOwner() {\r\n        require(Owner == msg.sender);\r\n        _;\r\n    }\r\n    \r\n    enum roles {\r\n        noRole,\r\n        supplier,\r\n        transporter,\r\n        manufacturer,\r\n        wholesaler\r\n    }\r\n\r\n    struct userData {\r\n        string name;\r\n        string userLoc;\r\n        roles role;\r\n        address userAddr;\r\n    }\r\n\r\n    mapping (address => userData) public userInfo;\r\n    \r\n    ///////// EVENTS\r\n    event UserRegister(address _address, string name, string userLoc, uint role, address userAddr);\r\n    event sendEvent(address seller, address buyer, address indexed packageAddr, bytes signature, uint indexed timestamp);\r\n    event buyEvent(address buyer, address indexed seller, address packageAddr, bytes signature, uint indexed timestamp);\r\n    event respondEvent(address indexed buyer, address seller, address packageAddr, bytes signature, uint indexed timestamp);\r\n\r\n    /////// all components //////////\r\n    function requestProduct(address buyer, address seller, address packageAddr, bytes memory signature) public {\r\n        emit buyEvent(buyer, seller, packageAddr, signature, now);\r\n    }\r\n\r\n    function respondToEntity(address buyer, address seller, address packageAddr, bytes memory signature) public {\r\n        emit respondEvent(buyer, seller, packageAddr, signature, now);\r\n    }\r\n\r\n    function verify(address p, bytes32 _hashedMessage, uint8 _v, bytes32 _r, bytes32 _s) public pure returns(bool) {\r\n        bytes memory prefix = \"\\x19Ethereum Signed Message:\\n32\";\r\n        bytes32 prefixedHashMessage = keccak256(abi.encodePacked(prefix, _hashedMessage));\r\n        return p == ecrecover(prefixedHashMessage, _v, _r, _s);\r\n    }\r\n\r\n    function sendPackageToEntity(address buyer, address seller, address packageAddr, bytes memory signature) public {\r\n        emit sendEvent(seller, buyer, packageAddr, signature, now);\r\n    }\r\n\r\n    /////////////// Owner //////////\r\n\r\n    function registerUser(string memory _name, string memory _loc, uint _role, address _userAddr) public onlyOwner {\r\n        userInfo[_userAddr].name = _name;\r\n        userInfo[_userAddr].userLoc = _loc;\r\n        userInfo[_userAddr].role = roles(_role);\r\n        userInfo[_userAddr].userAddr = _userAddr;\r\n\r\n        emit UserRegister(_userAddr, _name, _loc, _role, _userAddr);\r\n    }\r\n\r\n    function getUserInfo(address _address) public view returns(\r\n        userData memory\r\n        ) {\r\n        return userInfo[_address];\r\n    }\r\n\r\n    /////////////// Supplier //////////////////////\r\n\r\n    mapping (address => address[]) supplierRawMaterials;\r\n    modifier onlySupplier() {\r\n        require(userInfo[msg.sender].role == roles.supplier,\"Supplier can use this function\");\r\n        _;\r\n    }\r\n\r\n    function createRawMaterialPackage(\r\n        string memory _description,\r\n        uint _quantity,\r\n        address _transporterAddr,\r\n        address _manufacturerAddr\r\n        ) public onlySupplier {\r\n\r\n        RawMaterial rawMaterial = new RawMaterial(\r\n            msg.sender,\r\n            address(bytes20(sha256(abi.encodePacked(msg.sender, block.timestamp)))),\r\n            _description,\r\n            _quantity,\r\n            _transporterAddr,\r\n            _manufacturerAddr\r\n        );\r\n        supplierRawMaterials[msg.sender].push(address(rawMaterial));\r\n    }\r\n\r\n    function getAllPackages() public view returns(address[] memory) {\r\n        uint len = supplierRawMaterials[msg.sender].length;\r\n        address[] memory ret = new address[](len);\r\n        for (uint i = 0; i < len; i++) {\r\n            ret[i] = supplierRawMaterials[msg.sender][i];\r\n        }\r\n        return ret;\r\n    }\r\n\r\n \r\n\r\n     ///////////////  Manufacturer ///////////////\r\n    mapping (address => address[]) public manufacturerRawMaterials;\r\n    mapping (address => address[]) public manufacturerProducts;\r\n\r\n    function manufacturerReceivedRawMaterials(address _addr, address _tempAddrManufacturer ) public {\r\n        require(userInfo[_tempAddrManufacturer].role == roles.manufacturer, \"Only Manufacturer can access this function\");\r\n        RawMaterial(_addr).receivedPackage(_tempAddrManufacturer);\r\n        manufacturerRawMaterials[_tempAddrManufacturer].push(_addr);\r\n    }\r\n\r\n\r\n    modifier onlyManufacturer() {\r\n        require(userInfo[msg.sender].role == roles.manufacturer,\"Only Manufacturer can create ItemProducto\");\r\n        _;\r\n    }\r\n\r\n    function manufacturerCreatesNewItemProducto(\r\n        string memory _description,\r\n        address[] memory _rawAddr,\r\n        uint _quantity,\r\n        address[] memory _transporterAddr,\r\n        address _receiverAddr\r\n        ) public onlyManufacturer{\r\n        \r\n        Product _product = new Product(\r\n            msg.sender,\r\n            _description,\r\n            _rawAddr,\r\n            _quantity,\r\n            _transporterAddr,\r\n            _receiverAddr\r\n        );\r\n\r\n        manufacturerProducts[msg.sender].push(address(_product)); \r\n    }\r\n\r\n    function getAllCreatedItemProductos() public view returns(address[] memory) {\r\n        uint len = manufacturerProducts[msg.sender].length;\r\n        address[] memory ret = new address[](len);\r\n        for (uint i = 0; i < len; i++) {\r\n            ret[i] = manufacturerProducts[msg.sender][i];\r\n        }\r\n        return ret;\r\n    }\r\n\r\n\r\n}",
  "sourcePath": "C:\\Users\\pisci\\OneDrive\\Escritorio\\victor\\app-supply\\contracts\\SupplyChain.sol",
  "compiler": {
    "name": "solc",
    "version": "0.6.6+commit.6c089d02.Emscripten.clang"
  },
  "schemaVersion": "3.4.8",
  "updatedAt": "2022-07-26T00:01:41.500Z",
  "networkType": "ethereum",
  "devdoc": {
    "methods": {}
  },
  "userdoc": {
    "methods": {
      "registerUser(string,string,uint256,address)": {
        "notice": "//////////// Owner //////////"
      },
      "requestProduct(address,address,address,bytes)": {
        "notice": "//// all components //////////"
      }
    }
  }
}