{
  "contractName": "Transporter",
  "abi": [
    {
      "inputs": [
        {
          "internalType": "address payable",
          "name": "_addr",
          "type": "address"
        }
      ],
      "name": "material",
      "outputs": [],
      "stateMutability": "payable",
      "type": "function"
    },
    {
      "inputs": [
        {
          "internalType": "address",
          "name": "_addr",
          "type": "address"
        },
        {
          "internalType": "uint256",
          "name": "_transportertype",
          "type": "uint256"
        },
        {
          "internalType": "address",
          "name": "_tempTransporterAddr",
          "type": "address"
        }
      ],
      "name": "handlePackage",
      "outputs": [],
      "stateMutability": "nonpayable",
      "type": "function"
    }
  ],
  "bytecode": "0x608060405234801561001057600080fd5b50610309806100206000396000f3fe6080604052600436106100295760003560e01c80636f41507c1461002e578063c61c8441146100a9575b600080fd5b34801561003a57600080fd5b506100a76004803603606081101561005157600080fd5b81019080803573ffffffffffffffffffffffffffffffffffffffff16906020019092919080359060200190929190803573ffffffffffffffffffffffffffffffffffffffff1690602001909291905050506100ed565b005b6100eb600480360360208110156100bf57600080fd5b81019080803573ffffffffffffffffffffffffffffffffffffffff169060200190929190505050610239565b005b6001821415610192578273ffffffffffffffffffffffffffffffffffffffff1663e594caa5826040518263ffffffff1660e01b8152600401808273ffffffffffffffffffffffffffffffffffffffff1673ffffffffffffffffffffffffffffffffffffffff168152602001915050600060405180830381600087803b15801561017557600080fd5b505af1158015610189573d6000803e3d6000fd5b50505050610234565b6002821415610233578273ffffffffffffffffffffffffffffffffffffffff166394c60714826040518263ffffffff1660e01b8152600401808273ffffffffffffffffffffffffffffffffffffffff1673ffffffffffffffffffffffffffffffffffffffff168152602001915050600060405180830381600087803b15801561021a57600080fd5b505af115801561022e573d6000803e3d6000fd5b505050505b5b505050565b8073ffffffffffffffffffffffffffffffffffffffff1663e594caa5336040518263ffffffff1660e01b8152600401808273ffffffffffffffffffffffffffffffffffffffff1673ffffffffffffffffffffffffffffffffffffffff168152602001915050600060405180830381600087803b1580156102b857600080fd5b505af11580156102cc573d6000803e3d6000fd5b505050505056fea26469706673582212208a53811c1b7fe75608a06b6649661755957a5c1b952c916aa1389c956ac4493964736f6c63430006060033",
  "immutableReferences": {},
  "source": "// SPDX-License-Identifier: MIT\r\npragma solidity ^0.6.6;\r\n\r\nimport './RawMaterial.sol';\r\nimport './Product.sol';\r\n\r\ncontract Transporter {\r\n    address add;\r\n    function material(address payable _addr) public payable{\r\n        RawMaterial(_addr).pickupPackage(msg.sender);\r\n    }\r\n    \r\n    function handlePackage(\r\n        address _addr,\r\n        uint _transportertype,\r\n        address _tempTransporterAddr\r\n        ) public {\r\n\r\n        if(_transportertype == 1) { \r\n            /// Supplier -> Manufacturer\r\n            RawMaterial(_addr).pickupPackage(_tempTransporterAddr);\r\n        }else if(_transportertype == 2) { \r\n            /// Manufacturer -> Wholesaler\r\n            Product(_addr).pickItemProduct(_tempTransporterAddr);\r\n        }\r\n    }\r\n    \r\n    \r\n    \r\n}",
  "sourcePath": "C:\\Users\\pisci\\OneDrive\\Escritorio\\victor\\appsupply\\contracts\\Transporter.sol",
  "compiler": {
    "name": "solc",
    "version": "0.6.6+commit.6c089d02.Emscripten.clang"
  },
  "schemaVersion": "3.4.8",
  "updatedAt": "2022-07-26T02:14:05.652Z",
  "devdoc": {
    "methods": {}
  },
  "userdoc": {
    "methods": {}
  }
}