{
  "contractName": "Wholesaler",
  "abi": [
    {
      "inputs": [],
      "stateMutability": "nonpayable",
      "type": "constructor"
    },
    {
      "inputs": [
        {
          "internalType": "address",
          "name": "",
          "type": "address"
        },
        {
          "internalType": "uint256",
          "name": "",
          "type": "uint256"
        }
      ],
      "name": "productsAtWholesaler",
      "outputs": [
        {
          "internalType": "address",
          "name": "",
          "type": "address"
        }
      ],
      "stateMutability": "view",
      "type": "function"
    },
    {
      "inputs": [
        {
          "internalType": "address",
          "name": "_address",
          "type": "address"
        },
        {
          "internalType": "address",
          "name": "_tempAddressWholesaler",
          "type": "address"
        }
      ],
      "name": "productRecievedAtWholesaler",
      "outputs": [],
      "stateMutability": "nonpayable",
      "type": "function"
    },
    {
      "inputs": [
        {
          "internalType": "address",
          "name": "_tempAddressWholesaler",
          "type": "address"
        }
      ],
      "name": "getAllProductsAtWholesaler",
      "outputs": [
        {
          "internalType": "address[]",
          "name": "",
          "type": "address[]"
        }
      ],
      "stateMutability": "view",
      "type": "function"
    }
  ],
  "bytecode": "0x608060405234801561001057600080fd5b50610523806100206000396000f3fe608060405234801561001057600080fd5b50600436106100415760003560e01c80635a447b1d14610046578063d6c57c70146100d4578063ebddaa2e14610138575b600080fd5b6100926004803603604081101561005c57600080fd5b81019080803573ffffffffffffffffffffffffffffffffffffffff169060200190929190803590602001909291905050506101d1565b604051808273ffffffffffffffffffffffffffffffffffffffff1673ffffffffffffffffffffffffffffffffffffffff16815260200191505060405180910390f35b610136600480360360408110156100ea57600080fd5b81019080803573ffffffffffffffffffffffffffffffffffffffff169060200190929190803573ffffffffffffffffffffffffffffffffffffffff16906020019092919050505061021c565b005b61017a6004803603602081101561014e57600080fd5b81019080803573ffffffffffffffffffffffffffffffffffffffff16906020019092919050505061037a565b6040518080602001828103825283818151815260200191508051906020019060200280838360005b838110156101bd5780820151818401526020810190506101a2565b505050509050019250505060405180910390f35b600060205281600052604060002081815481106101ea57fe5b906000526020600020016000915091509054906101000a900473ffffffffffffffffffffffffffffffffffffffff1681565b8173ffffffffffffffffffffffffffffffffffffffff16639296057b826040518263ffffffff1660e01b8152600401808273ffffffffffffffffffffffffffffffffffffffff1673ffffffffffffffffffffffffffffffffffffffff168152602001915050602060405180830381600087803b15801561029b57600080fd5b505af11580156102af573d6000803e3d6000fd5b505050506040513d60208110156102c557600080fd5b8101908080519060200190929190505050506000808273ffffffffffffffffffffffffffffffffffffffff1673ffffffffffffffffffffffffffffffffffffffff168152602001908152602001600020829080600181540180825580915050600190039060005260206000200160009091909190916101000a81548173ffffffffffffffffffffffffffffffffffffffff021916908373ffffffffffffffffffffffffffffffffffffffff1602179055505050565b606060008060008473ffffffffffffffffffffffffffffffffffffffff1673ffffffffffffffffffffffffffffffffffffffff16815260200190815260200160002080549050905060608167ffffffffffffffff811180156103db57600080fd5b5060405190808252806020026020018201604052801561040a5781602001602082028036833780820191505090505b50905060008090505b828110156104e2576000808673ffffffffffffffffffffffffffffffffffffffff1673ffffffffffffffffffffffffffffffffffffffff168152602001908152602001600020818154811061046457fe5b9060005260206000200160009054906101000a900473ffffffffffffffffffffffffffffffffffffffff1682828151811061049b57fe5b602002602001019073ffffffffffffffffffffffffffffffffffffffff16908173ffffffffffffffffffffffffffffffffffffffff16815250508080600101915050610413565b50809250505091905056fea26469706673582212202f99adf4bacc0184703f14ff2609d6827f074d8d295a4b44f112b8537c6ed41064736f6c63430006060033",
  "immutableReferences": {},
  "source": "// SPDX-License-Identifier: MIT\r\npragma solidity ^0.6.6;\r\n\r\nimport './Product.sol';\r\n\r\ncontract Wholesaler {\r\n    \r\n    mapping(address => address[]) public productsAtWholesaler;\r\n    \r\n    constructor() public {}\r\n    \r\n    function productRecievedAtWholesaler(\r\n        address _address,\r\n        address _tempAddressWholesaler\r\n    ) public {\r\n        Product(_address).receivedProduct(_tempAddressWholesaler);\r\n        productsAtWholesaler[_tempAddressWholesaler].push(_address);\r\n        \r\n    }\r\n\r\n    function getAllProductsAtWholesaler(address _tempAddressWholesaler) public view returns(address[] memory) {\r\n        uint len = productsAtWholesaler[_tempAddressWholesaler].length;\r\n        address[] memory ret = new address[](len);\r\n        for (uint i = 0; i < len; i++) {\r\n            ret[i] = productsAtWholesaler[_tempAddressWholesaler][i];\r\n        }\r\n        return ret;\r\n    }\r\n}",
  "sourcePath": "C:\\Users\\pisci\\OneDrive\\Escritorio\\victor\\app-supply\\contracts\\Wholesaler.sol",
  "compiler": {
    "name": "solc",
    "version": "0.6.6+commit.6c089d02.Emscripten.clang"
  },
  "schemaVersion": "3.4.8",
  "updatedAt": "2022-07-26T00:01:37.468Z",
  "devdoc": {
    "methods": {}
  },
  "userdoc": {
    "methods": {}
  }
}